:020000040800F2
:100000000000012089410008C5030008C70300085B
:10001000C9030008CB030008CD030008000000005E
:10002000000000000000000000000000E1380008AF
:10003000CF03000800000000813900086B3400087D
:10004000D9410008D9410008D9410008D941000828
:10005000D9410008D9410008D9410008D941000818
:10006000D9410008D9410008D9410008D941000808
:10007000D9410008D9410008D9410008D9410008F8
:10008000D9410008D9410008D9410008D9410008E8
:10009000D9410008D9410008D9410008D9410008D8
:1000A000D9410008D9410008D9410008D9410008C8
:1000B000D94100080000000000000000D9410008FC
:1000C000D9410008D9410008D9410008D9410008A8
:1000D000D9410008D9410008D9410008D941000898
:1000E000D1030008D9410008000000000000000012
:1000F0000000000000000000000000000000000000
:1001000000000000D941000800000000D9410008AB
:100110000000000000000000D9410008DD030008D5
:10012000D9410008D9410008D9410008D941000847
:10013000D94100080000000000000000000000009D
:10014000D9410008D9410008D94100080000000049
:10015000D9410008D9410008D9410008D941000817
:10016000D9410008D9410008D94100080000000029
:10017000D9410008D941000800000000000000003B
:10018000D9410008D9410008D94100080000000009
:1001900053B94AB9002908BF00281CBF4FF0FF31EE
:1001A0004FF0FF3000F00CB8ADF1080C6DE904CE53
:1001B00004F04EF8DDF804E0DDE9022304B07047F6
:1001C000704700BF0348044B834202D0034B03B186
:1001D00018477047100000201000002000000000A9
:1001E0000548064B1B1AD90F01EBA301491002D099
:1001F000034B03B118477047100000201000002087
:100200000000000010B5064C237843B9FFF7DAFF71
:10021000044B13B10448AFF300800123237010BDD9
:1002200010000020000000001845000808B5054B2C
:100230001BB105490548AFF30080BDE80840FFF752
:10024000CFBF00BF000000001400002018450008C8
:1002500010B588B000240394049405940694079480
:10026000134BDA6C42F00202DA64DA6C02F002023A
:100270000192019ADA6C42F00102DA64DB6C03F05D
:1002800001030293029B4FF4806303934FF488139E
:10029000049303A9074801F093F82246052128207A
:1002A00001F0E4F9282001F019FA08B010BD00BFF0
:1002B000001002400004004808B5012003F06EF968
:1002C000FBE7000008B50268034B9A4200D008BD66
:1002D00000F03CF9FBE700BF0014004072B6FEE7F7
:1002E00008B50B480B4B03604FF4E1334360002328
:1002F0008360C36003610C2242618361C361036256
:10030000436201F0C4FD00B908BDFFF7E7FF00BF7D
:10031000300000200038014000B597B04422002191
:1003200005A803F08DFF002300930193029303932C
:1003300004934FF4007001F03FF9D0B910230593F6
:1003400001230B9300230C9360220D920F9305A8B9
:1003500000F0B0F978B90F230093002101910291C8
:1003600003910491684600F0DBFC30B917B05DF8EA
:1003700004FBFFF7B3FFFFF7B1FFFFF7AFFF00008C
:1003800008B50C49002003F0EFFE00F0CFF8FFF7AE
:10039000C3FFFFF75DFFFFF7A3FF03F073F8064A03
:1003A0000021064803F09CF8054B186003F07CF828
:1003B000FEE700BF304500084C450008B9020008C0
:1003C0002C000020FEE7FEE7FEE7FEE7FEE77047B1
:1003D00008B54FF4806001F0D9F808BD08B50248AF
:1003E00001F0C6F908BD00BFB400002000B583B01D
:1003F0000D4B1A6E42F001021A661A6E02F00102EB
:100400000092009A9A6D42F080529A659B6D03F0BB
:1004100080530193019B00220F216FF0010001F036
:1004200025F903B05DF804FB0010024010B59EB042
:100430000446002119911A911B911C911D915C2277
:1004400002A803F0FDFE2268184B9A4201D01EB0AC
:1004500010BD0123029302A800F024FE18BB144B28
:100460001A6E42F480421A661A6E02F480420092BA
:10047000009ADA6C42F00102DA64DB6C03F00103EB
:100480000193019B4FF4C063199302231A93002335
:100490001B9303231C9307231D9319A94FF090402E
:1004A00000F08EFFD3E7FFF719FFD8E700380140CF
:1004B0000010024000B589B001460022372001F04B
:1004C000D5F8372001F00AF9144B9A6D42F020025A
:1004D0009A659B6D03F020030193019B02A903A879
:1004E00000F00CFD00F0E6FC0D4BA3FB00239B0C81
:1004F000013B0C480C4A026040F2E732C2604360A4
:1005000000230361836001F039FA18B1012009B0BA
:100510005DF804FB034801F0F1F8F8E70010024031
:1005200083DE1B43B40000200014004010B50320FC
:1005300001F08AF80F20FFF7BDFF10B1012420461B
:1005400010BD0446FFF752FFF9E70000034B1B788C
:10055000034A11680B441360704700BF000000207D
:1005600000010020014B1868704700BF0001002007
:1005700030B583B00446204B9B6D13F0805F0BD0E9
:1005800001F012F8B0F5007F17D0802C1FD82DD0C5
:10059000702C2DD000211BE0174DAB6D43F0805324
:1005A000AB65AB6D03F080530193019B00F0FCFF42
:1005B000AB6D23F08053AB65E4E7802C03D9A02C0E
:1005C00003D9022104E0002102E0012100E003211F
:1005D0000A4A136823F007030B431360136803F000
:1005E00007038B4206D1002003B030BD0221EFE7A4
:1005F0000121EDE70120F7E7001002400020024052
:10060000284A9368D26802F0030213F00C030AD060
:100610000C2B06D0042B1FD0082B20D00020024624
:1006200010E0012AF6D11F4A126812F0080F0CD10F
:100630001C4AD2F89420C2F303221B4951F822200D
:1006400043B100200C2B0DD07047164A1268C2F33C
:100650000312F2E71046F5E714480022F2E71448C7
:100660000022EFE70F4BDB6803F00303022B16D0E9
:10067000032B00D10E4A0B49CB68C3F3021301339D
:10068000C868C0F3062002FB00F0B0FBF3F0CB68B3
:10069000C3F3416301335B00B0FBF3F0D4E7034ADB
:1006A000E9E700BF00100240884500080024F4007C
:1006B00000127A00002800F01C83F0B583B00446D5
:1006C000964B9D6805F00C05DE6806F0030603688E
:1006D00013F0100F5AD0E5B10C2D18D0A369002BE0
:1006E00000F0BB808D4A136843F001031360FFF7ED
:1006F00039FF0746894B1B6813F0020F40F09A80C0
:10070000FFF730FFC01B0228F4D90320FCE2012EC2
:10071000E4D1824B1B6813F0020F03D0A369002BB6
:1007200000F0E982206A7D4B1B6813F0080F5BD054
:100730007A4B1B6803F0F00398425CD8774B1A6839
:1007400042F008021A601A6822F0F002216A0A4395
:100750001A605A6822F47F42E16942EA01225A6033
:10076000002D60D0FFF74CFF6C4B9B68C3F3031365
:100770006B4AD35C03F01F03D8406A4B18606A4B86
:100780001868FFF797FE002840F0BE82236813F038
:10079000010F00F08180082D75D00C2D71D0636899
:1007A000B3F5803F00F09780B3F5A02F00F099805B
:1007B0005A4B1A6822F480321A601A6822F4802296
:1007C0001A606368002B00F09980FFF7CBFE0746A4
:1007D000524B1B6813F4003F5ED1FFF7C3FEC01BF2
:1007E0006428F5D903208FE24C4BD3F894301B09D1
:1007F00003F0F003A0E7FFF7BBFE002840F07D8286
:10080000464B1A6842F008021A601A6822F0F00299
:10081000216A0A431A605A6822F47F42E16942EA77
:1008200001225A609EE7206AFFF7A2FE002899D0B5
:10083000012069E2394B1A6842F008021A601A680E
:1008400022F0F002216A0A431A605A6822F47F42B9
:10085000E16942EA01225A6098E7304A136823F0BE
:1008600001031360FFF77EFE07462C4B1B6813F055
:10087000020F8BD0FFF776FEC01B0228F5D90320AC
:1008800042E2032E8BD1254B1B6813F4003F03D0AB
:100890006368002B00F03382236813F0020F58D0F6
:1008A000042D45D00C2D41D0E368002B77D01B4A96
:1008B000136843F480731360FFF754FE0646174B2A
:1008C0001B6813F4806F61D1FFF74CFE801B022878
:1008D000F5D9032018E2114A136843F480331360FA
:1008E0006FE703F18043A3F53C331A6842F480229A
:1008F0001A601A6842F480321A6062E7FFF732FE2B
:100900000746064B1B6813F4003FC5D0FFF72AFECD
:10091000C01B6428F5D90320F6E100BF0010024097
:10092000704500080800002004000020022EBBD102
:10093000A44B1B6813F4806F03D0E368002B00F016
:10094000E081A04A536823F0F853216943EA016328
:100950005360236813F0080F4CD063699BB3994A26
:10096000D2F8943043F00103C2F89430FFF7FAFD57
:100970000646944BD3F8943013F0020F3AD1FFF7A8
:10098000F1FD801B0228F4D90320BDE18D4A536894
:1009900023F0F853216943EA01635360D9E7894A98
:1009A000136823F480731360FFF7DCFD0646854B64
:1009B0001B6813F4806FCCD0FFF7D4FD801B022896
:1009C000F5D90320A0E17F4AD2F8943023F0010347
:1009D000C2F89430FFF7C6FD06467A4BD3F8943040
:1009E00013F0020F06D0FFF7BDFD801B0228F4D9DB
:1009F000032089E1236813F0040F7AD0714B9B6DBB
:100A000013F0805F36D16F4B9A6D42F080529A6539
:100A10009B6D03F080530193019B01266A4B1B6879
:100A200013F4807F28D0A368012B39D0052B3FD049
:100A3000644BD3F8902022F00102C3F89020D3F841
:100A4000902022F00402C3F89020A368002B3DD030
:100A5000FFF788FD07465B4BD3F8903013F0020F89
:100A600046D1FFF77FFDC01B41F288339842F2D98F
:100A7000032049E10026D1E7534A136843F4807309
:100A80001360FFF76FFD07464F4B1B6813F4807F21
:100A9000C9D1FFF767FDC01B0228F5D9032033E158
:100AA000484AD2F8903043F00103C2F89030CCE7C6
:100AB000444BD3F8902042F00402C3F89020D3F8BE
:100AC000902042F00102C3F89020BEE7FFF74AFDF4
:100AD00007463C4BD3F8903013F0020F08D0FFF7D5
:100AE00041FDC01B41F288339842F2D903200BE14B
:100AF000E6B9236813F0200F35D0636AE3B1314AB9
:100B0000D2F8983043F00103C2F89830FFF72AFD7D
:100B100006462C4BD3F8983013F0020F23D1FFF781
:100B200021FD801B0228F4D90320EDE0254A936DB6
:100B300023F080539365DCE7224AD2F8983023F003
:100B40000103C2F89830FFF70DFD06461D4BD3F8A0
:100B5000983013F0020F06D0FFF704FD801B022827
:100B6000F4D90320D0E0A36A002B00F0CC80022B44
:100B700017D00C2D00F0CC80124A136823F080733C
:100B80001360FFF7EFFC04460E4B1B6813F0007F69
:100B900000F0A880FFF7E6FC001B0228F4D9032030
:100BA000B2E0084BDB6803F00301E26A91420DD02A
:100BB0000C2D00F0AB80034B1B6813F0806F2FD01F
:100BC0000120A1E0001002400070004003F070021C
:100BD000216B0139B2EB011FEAD103F4FE42616BD4
:100BE000B2EB012FE4D103F07842A16BB2EBC16FFD
:100BF000DED103F4C001E26B5208013AB1EB425F6F
:100C0000D6D103F0C063226C5208013AB3EB426FB5
:100C1000CED1404B1B6813F0007F49D0002073E019
:100C20003C4A136823F080731360FFF79BFC054672
:100C3000384B1B6813F0007F06D0FFF793FC401B76
:100C40000228F5D903205FE0324AD36832491940BF
:100C5000E36A206B013843EA0013606B43EA002328
:100C6000E06B4008013843EA4053206C40080138EB
:100C700043EA4063A06B43EAC0631943D160136841
:100C800043F080731360D36843F08073D360FFF741
:100C900069FC04461F4B1B6813F0007F06D1FFF769
:100CA00061FC001B0228F5D903202DE000202BE079
:100CB000184B1A6842F080721A60DA6842F080724B
:100CC000DA60FFF74FFC0446124B1B6813F0007FFD
:100CD00006D1FFF747FC031B022BF5D9032013E0D5
:100CE000002011E00B4AD1680C4B0B40D360002070
:100CF0000AE001207047012006E0012004E0012005
:100D000002E0012000E0002003B0F0BD0120FBE77D
:100D10000120F9E7001002408C809D01FCFFEEFEEF
:100D2000002800F0AF8070B50D460446594B1B6893
:100D300003F007038B420BD2564A136823F00703D4
:100D40000B431360136803F007038B4240F09C8051
:100D5000236813F0020F0CD0A2684F4B9B6803F07E
:100D6000F0039A4205D94C498B6823F0F0031A43EB
:100D70008A60236813F0010F39D06368032B09D010
:100D8000022B26D063BB444A126812F0020F06D130
:100D9000012076E0404A126812F0007F76D03E498A
:100DA0008A6822F0030213438B60FFF7DBFB0646E1
:100DB000394B9B6803F00C036268B3EB820F16D0CB
:100DC000FFF7D0FB801B41F288339842F0D9032013
:100DD00057E0314A126812F4003FE0D1012050E0A0
:100DE0002D4A126812F4806FD9D1012049E023689E
:100DF00013F0020F0CD0A268274B9B6803F0F0039E
:100E00009A4205D224498B6823F0F0031A438A6082
:100E1000204B1B6803F00703AB420AD91D4A136835
:100E200023F007032B431360136803F00703AB425F
:100E30002ED1236813F0040F06D0174A936823F4C9
:100E4000E063E1680B439360236813F0080F07D059
:100E5000114A936823F46053216943EAC103936004
:100E6000FFF7CEFB0C4B9B68C3F303130B4AD35C19
:100E700003F01F03D8400A4B18600A4B1868FFF7AD
:100E800019FB70BD012070470120FAE70120F8E747
:100E90000120F6E7002002400010024070450008E3
:100EA0000800002004000020014B1868704700BFB4
:100EB0000800002008B5FFF7F7FF054B9B68C3F358
:100EC0000223044AD35C03F01F03D84008BD00BFCF
:100ED000001002408045000808B5FFF7E5FF054B0C
:100EE0009B68C3F3C223044AD35C03F01F03D840BA
:100EF00008BD00BF00100240804500080F230360BA
:100F00000B4B9A6802F0030242609A6802F0F0020A
:100F100082609A6802F4E062C2609B68DB0803F4B6
:100F2000E0630361034B1B6803F007030B6070472A
:100F30000010024000200240F8B504460F46584B0E
:100F4000DB6813F0030F18D0554BDB6803F0030385
:100F50000268934202D001252846F8BD002A00F01D
:100F60009D804F4BDB68C3F3021301334268934209
:100F700001D00125F0E7002509E00368022B56D0D7
:100F8000032B5BD0012B41D00125002DE4D1444A35
:100F9000136823F080631360FFF7E4FA0646404BC2
:100FA0001B6813F0006F05D0FFF7DCFA831B022BE0
:100FB000F5D90325002DCFD1002F4DD138490B692C
:100FC00023F0784323F4FE43A068E268D20642EAA5
:100FD000002213430B61324A136843F080631360AD
:100FE000FFF7C0FA06462E4B1B6813F0006F05D1C1
:100FF000FFF7B8FA831B022BF5D90325002DABD1DF
:10100000274A1369A1690B431361A5E7244A1268B3
:1010100012F0020F1ED02248C26822F073026168EB
:10102000013943EA01131343C3600025ADE71C4AAD
:10103000126812F4806FEED10125A6E7184A1268F3
:1010400012F4003FE7D1164A126812F4802FE2D161
:1010500001259AE7012598E7012F0FD01048026972
:1010600022F0C06222F4FE42A16863695B08013B82
:101070005B0643EA01231A430261ACE708480269B0
:1010800022F4C00222F4FE42A16823695B08013BFE
:101090005B0543EA01231A4302619CE701255BE7F4
:1010A000001002402DE9F04182B00446036813F4B9
:1010B000006F25D0436CB3F5000F06D0B3F5400F99
:1010C00012D04BB1012637461CE0B34AD36843F433
:1010D0008033D360002708E000210430FFF72CFFA5
:1010E000074610B106460DE00027AB4AD2F888301B
:1010F00023F44003616C0B43C2F88830002601E002
:1011000000263746236813F4003F6BD0A24B9B6D3B
:1011100013F0805F4CD1A04B9A6D42F080529A65DB
:101120009B6D03F080530193019B4FF001089B4A94
:10113000136843F480731360FFF714FA0546974B66
:101140001B6813F4807F05D1FFF70CFA401B0228BF
:10115000F5D90327002F40D18F4BD3F8903013F4EB
:10116000407315D0A26D9A4212D08B4AD2F89030BB
:1011700023F44073D2F8901041F48031C2F89010FB
:10118000D2F8901021F48031C2F89010C2F890305B
:1011900013F0010F0FD1002F40F0E3807E4AD2F808
:1011A000903023F44073A16D0B43C2F8903015E0EA
:1011B0004FF00008BBE7FFF7D5F90546764BD3F8AB
:1011C000903013F0020FE6D1FFF7CCF9401B41F24B
:1011D00088339842F2D90327DDE73E46B8F1000F85
:1011E00040F0C180236813F0010F08D06A4AD2F89A
:1011F000883023F00303216A0B43C2F88830236848
:1012000013F0020F08D0644AD2F8883023F00C03A0
:10121000616A0B43C2F88830236813F0040F08D0CA
:101220005D4AD2F8883023F03003A16A0B43C2F83C
:101230008830236813F0200F08D0574AD2F888303E
:1012400023F44063E16A0B43C2F88830236813F447
:10125000007F08D0504AD2F8883023F44023E16B55
:101260000B43C2F88830236813F4806F08D04A4AD1
:10127000D2F8883023F44013216C0B43C2F8883035
:10128000236813F0400F08D0434AD2F8883023F483
:101290004053216B0B43C2F88830236813F0800F52
:1012A00008D03D4AD2F8883023F44043616B0B43A9
:1012B000C2F88830236813F4807F08D0364AD2F809
:1012C000883023F44033A16B0B43C2F88830236885
:1012D00013F4002F0FD0304AD2F8883023F0406347
:1012E000A16C0B43C2F88830A36CB3F1006F40D0FF
:1012F000B3F1806F42D0236813F4802F0FD0264AB9
:10130000D2F8883023F04063E16C0B43C2F8883098
:10131000E36CB3F1006F39D0B3F1806F40D0236834
:1013200013F4804F0CD01C4AD2F8883023F040537D
:10133000216D0B43C2F88830236DB3F1805F37D045
:10134000236813F4004F08D0134AD2F8883023F0F2
:101350008043616D0B43C2F88830304602B0BDE86F
:10136000F0813E463AE70C4A936D23F08053936533
:1013700038E7D36843F48013D360BCE70121201D14
:10138000FFF7DAFD0028B6D00646B4E7D36843F489
:101390008013D360C3E700BF00100240007000401C
:1013A0000121201DFFF7C8FD0028B8D00646B6E78A
:1013B0000221201DFFF7C0FD0028C1D00646BFE76F
:1013C000F0B583B0002362E085685E000324B4407A
:1013D00025EA0405CC68B4402C438460456825EABE
:1013E0000C054C68C4F300149C402C4344605FE03F
:1013F000DD08083550F8254003F0070C4FEA8C0C47
:101400004FF00F0E0EFA0CFE24EA0E0E0C6904FAD1
:101410000CF444EA0E0440F8254060E0042400E0A7
:10142000002404FA0EF42C430CF1020C524D45F842
:101430002C40524CA568D44325EA02064F6817F4A5
:10144000801F01D042EA05064C4DAE60ED6804EA0B
:1014500005064F6817F4001F01D042EA0506474D04
:10146000EE606D6804EA05064F6817F4003F01D08E
:1014700042EA0506414D6E602D682C404E6816F418
:10148000803F01D042EA05043C4A146001330A68F7
:1014900032FA03F46ED04FF0010C0CFA03FC1CEA94
:1014A0000202F3D04C6804F00304013C012C8BD9F8
:1014B0004C6804F00304032C0CD0C4685D004FF0AA
:1014C000030C0CFA05FC24EA0C0C8C68AC4044EAD2
:1014D0000C04C4604C6804F00304022C88D0046837
:1014E0004FEA430E4FF0030C0CFA0EFC24EA0C0CEE
:1014F0004C6804F0030404FA0EF444EA0C0404609B
:101500004C6814F4403FC1D01D4C256E45F00105D8
:101510002566246E04F001040194019C4FEA930CAB
:101520000CF10205144C54F8255003F0030E4FEA59
:101530008E0E0F2404FA0EF425EA0405B0F1904F44
:101540003FF46EAF0F4CA0420ED004F58064A04271
:101550000CD004F58064A0420AD004F58064A04257
:101560003FF45CAF07245CE701245AE7022458E704
:10157000032456E703B0F0BD000001400004014021
:1015800000100240000400487047000008B5054BF9
:101590005B69034200D108BD024B5861FFF7F4FFBD
:1015A000F9E700BF00040140024B186800F4C06076
:1015B000704700BF00700040B0F5007F0FD01F4B98
:1015C0001B6803F4C063B3F5806F34D01B4A136803
:1015D00023F4C06343F48063136000207047174B0B
:1015E0001B6803F4C063B3F5007F20D0134A13686F
:1015F00023F4C06343F400731360114B1B68322261
:1016000002FB03F30F4AA2FB03239B0C013300E010
:10161000013B0A4A526912F4806F01D0002BF7D1C6
:10162000064B5B6913F4806F03D1002070470020E4
:101630007047032070470020704700BF00700040D3
:101640000800002083DE1B43074AD36823F4E063CD
:101650001B041B0C000200F4E060034343F0BF6373
:1016600043F40033D360704700ED00E000B5194B40
:10167000DB68C3F30223C3F1070CBCF1040F28BFDE
:101680004FF0040C03F1040EBEF1060F18D9033B12
:101690004FF0FF3E0EFA0CFC21EA0C0199400EFAC5
:1016A00003FE22EA0E020A4300280BDB1201D2B22B
:1016B00000F1604000F5614080F800235DF804FB14
:1016C0000023E5E700F00F001201D2B2024B1A54DA
:1016D000F4E700BF00ED00E014ED00E0002807DBB8
:1016E00000F01F02400901239340024A42F82030D3
:1016F000704700BF00E100E07047000090F83D3007
:10170000DBB2012B26D1022380F83D300268D3687A
:1017100043F00103D3600368114A93420CD0B3F144
:10172000804F09D002F5A052934205D01A6842F0CA
:1017300001021A600020704799680A4A0A40062A86
:101740000AD0B2F5803F09D01A6842F001021A604F
:10175000002070470120704700207047002070472C
:10176000002C014007000100704770477047704728
:1017700010B5044603681A6912F0020F11D0DA6836
:1017800012F0020F0DD06FF002021A6101230377ED
:1017900003689B6913F0030F79D0FFF7E6FF00237E
:1017A000237723681A6912F0040F12D0DA6812F056
:1017B000040F0ED06FF004021A610223237723680E
:1017C0009B6913F4407F68D02046FFF7CEFF0023CB
:1017D000237723681A6912F0080F12D0DA6812F022
:1017E000080F0ED06FF008021A61042323772368D4
:1017F000DB6913F0030F57D02046FFF7B6FF002335
:10180000237723681A6912F0100F12D0DA6812F0E9
:10181000100F0ED06FF010021A610823237723688F
:10182000DB6913F4407F46D02046FFF79EFF00237C
:10183000237723681A6912F0010F03D0DA6812F0D7
:10184000010F3FD123681A6912F0800F03D0DA68C4
:1018500012F0800F3DD123681A6912F4807F03D003
:10186000DA6812F0800F3BD123681A6912F0400F3A
:1018700003D0DA6812F0400F39D123681A6912F0E8
:10188000200F03D0DA6812F0200F37D110BDFFF718
:101890006BFF2046FFF76AFF81E72046FFF764FFF2
:1018A0002046FFF763FF92E72046FFF75DFF2046E3
:1018B000FFF75CFFA3E72046FFF756FF2046FFF740
:1018C00055FFB4E76FF001021A612046FEF7FAFCFB
:1018D000B8E76FF080021A61204600F080F8BAE79E
:1018E0006FF480721A61204600F07AF8BCE76FF05E
:1018F00040021A612046FFF73AFFBEE76FF0200270
:101900001A61204600F06AF8C0E7000003681A4A2E
:10191000904202D0B0F1804F03D123F070034A68A7
:101920001343154A90420AD0B0F1804F07D002F518
:10193000A052904203D002F58062904203D123F47A
:101940004073CA68134323F080034A69134303605A
:101950008B68C3620B688362074B984207D003F51C
:10196000A053984203D003F58063984201D10B69DC
:101970000363012343617047002C014060B310B53D
:10198000044690F83D3013B3022384F83D302146DD
:1019900051F8040BFFF7BAFF012384F8483084F8AC
:1019A0003E3084F83F3084F8403084F8413084F889
:1019B000423084F8433084F8443084F8453084F869
:1019C000463084F8473084F83D30002010BD80F860
:1019D0003C30FFF791FED7E7012070477047704712
:1019E0007047000010B5044601688368026913431C
:1019F00042691343C26913430868954A02401A4377
:101A00000A602268536823F44053E1680B43536033
:101A1000A16922688F4B9A4201D0236A19439368C7
:101A200023F430630B43936023688B4A93421FD0A7
:101A30008A4A934230D08A4A934246D0854A93429A
:101A400055D0102283498B427AD0E069B0F5004F1F
:101A500000F0A680082A00F20F81DFE812F0CE0025
:101A6000E500CC000D01E8000D010D010D01EB00BA
:101A700002F55842D2F8882002F00302032A09D85E
:101A8000DFE802F002044A060122DBE70422D9E77C
:101A90000822D7E71022D5E702F5E632D2F88820EF
:101AA00002F00C020C2A0ED8DFE802F0070D0D0D33
:101AB000090D0D0D380D0D0D0B000022C2E704229B
:101AC000C0E70822BEE71022BCE702F5E432D2F8F4
:101AD000882002F03002202A22D004D812B3102A23
:101AE00022D10422AEE7302A20D10822AAE702F54B
:101AF000C832D2F8882002F44062B2F5006F17D0E5
:101B000005D8BAB1B2F5806F16D104229AE7B2F5C2
:101B1000406F13D1082295E7022293E7022291E752
:101B200002228FE700228DE710228BE7102289E73F
:101B3000022287E7002285E7102283E7102281E74F
:101B4000082A7AD8DFE802F008792A7927797979A2
:101B500005004FF4004003E0FFF7ACF900286ED019
:101B6000626802EB420383426BD8B0EB023F6AD853
:101B7000010E00025308C0184FF0000341F10001AC
:101B8000FEF706FBA0F54072364B9A425DD82368FB
:101B9000D860002044E0FEF733FDDFE73248DFE79E
:101BA000082A63D8DFE802F0072105622462626236
:101BB0000B002D4803E0FFF77DF9002858D062683C
:101BC000530803EB4003B3FBF2F3A3F110014FF60C
:101BD000EF7291424ED89AB222F00F02C3F3420341
:101BE00013432268D36000201AE0FFF775F9E4E799
:101BF000FEF706FDE1E71C4803E0FFF75BF900286C
:101C00003CD0636800EB5300B0FBF3F0A0F110028E
:101C10004FF6EF739A4233D8236880B2D860002021
:101C200000236366A36610BDFFF756F9E7E7FEF7EA
:101C3000E7FCE4E74FF40040E3E70120F0E7002091
:101C4000EEE70120ECE70120EAE70120E8E700BF2A
:101C5000F369FFEF0080004000380140004400407D
:101C600000480040FFFC0F000024F4000120D7E7EB
:101C70000020D5E70120D3E70120D1E70020CFE7FE
:101C80000120CDE7436A13F0010F06D002685368C4
:101C900023F40033816A0B435360436A13F0020F4D
:101CA00006D00268536823F48033C16A0B43536043
:101CB000436A13F0040F06D00268536823F48023AC
:101CC000016B0B435360436A13F0080F06D00268A0
:101CD000536823F40043416B0B435360436A13F092
:101CE000100F06D00268936823F48053816B0B4376
:101CF0009360436A13F0200F06D00268936823F4C0
:101D00000053C16B0B439360436A13F0400F0AD03A
:101D10000268536823F48013016C0B435360036C17
:101D2000B3F5801F0BD0436A13F0800F06D0026812
:101D3000536823F40023816C0B435360704702689F
:101D4000536823F4C003416C0B435360EBE72DE968
:101D5000F84305460F4616469946DDF820802B6865
:101D6000DC6937EA04040CBF01240024B44253D1D7
:101D7000B8F1FF3FF3D0FEF7F5FBA0EB09004045BB
:101D80002DD8B8F1000F2AD02B681A6812F0040F72
:101D9000E5D0DA6912F4006FE1D04FF400621A6204
:101DA0002A6852E8003F23F4D07342E8003100294A
:101DB000F6D12A6802F1080353E8003F23F001033B
:101DC000083242E800310029F3D12023AB67EB67EA
:101DD000C5F88030002385F8743003201DE02A68A0
:101DE00052E8003F23F4D07342E800310029F6D1D5
:101DF0002A6802F1080353E8003F23F00103083288
:101E000042E800310029F3D12023AB67EB670023C0
:101E100085F87430032000E00020BDE8F88330B579
:101E200083B004460023C0F88030FEF79BFB0546D4
:101E30002268126812F0080F0DD123681B6813F096
:101E4000040F16D12023A367E3670020206684F8DF
:101E5000740003B030BD6FF07E4300930346002250
:101E60004FF400112046FFF772FF0028E5D0032051
:101E7000EFE76FF07E4300932B4600224FF4800182
:101E80002046FFF764FF0028DCD00320E1E768B3B9
:101E900010B50446836F03B32423A3672268136835
:101EA00023F0010313602046FFF79CFD012813D0A7
:101EB000636ABBB92268536823F490435360226875
:101EC000936823F02A0393602268136843F00103A8
:101ED00013602046FFF7A3FF10BD80F87430FEF7B3
:101EE000A5FAD9E72046FFF7CDFEE3E701207047CA
:101EF000034AD2F8883043F47003C2F88830704740
:101F000000ED00E000F1080343604FF0FF32826013
:101F1000C3600361002303607047002303617047BF
:101F200043684B609A688A605160996008610368F1
:101F300001330360704730B40D68B5F1FF3F11D035
:101F400000F108031C465B681A68AA42FAD9636864
:101F50004B6099608C6061600861036801330360C5
:101F600030BC70470469F2E70369416882688A609F
:101F7000416851605A68824206D0002202611A68A4
:101F8000013A1A601868704782685A60F5E710B520
:101F9000044601F0B7FCA26BE36B9A4204D0002424
:101FA00001F0D2FC204610BD0124F9E710B504462B
:101FB00001F0A8FCA36B23B9012401F0C5FC204665
:101FC00010BD0024F9E770B504461546866B026C17
:101FD0005AB903681BB100200136A66370BD806842
:101FE00000F0D2FF0023A360F6E76DB9406802F06D
:101FF00019F9226C636813446360A268934219D391
:10200000236863602846E7E7C06802F00BF9226C9A
:102010005142E3689B1AE3602268934202D2A368AC
:102020000B44E360022D01D00020D5E726B1013E2C
:102030000020D1E72846CFE70020CDE70346026C19
:102040006AB110B50846D9681144D9609C68A142AC
:1020500001D31968D960D96802F0E4F810BD70475F
:1020600038B5054601F04EFC95F8454064B201E0F4
:10207000013C64B2002C0ADD6B6A43B105F1240017
:1020800000F0D8FE0028F3D000F068FFF0E7FF234F
:1020900085F8453001F058FC01F034FC95F84440D7
:1020A00064B201E0013C64B2002C0ADD2B6943B14B
:1020B00005F1100000F0BEFE0028F3D000F04EFF46
:1020C000F0E7FF2385F8443001F03EFC38BD38B519
:1020D000E0B10D46044601F015FC2368E26B216C6B
:1020E00001FB0230A0600020A0636360013A02FBA4
:1020F0000133E360FF2384F8443084F84530FDB9B0
:10210000236963B901F020FC012038BD4FF0500372
:1021100083F31188BFF36F8FBFF34F8FFEE704F196
:10212000100000F087FE0028ECD04FF0E0234FF0C5
:102130008052C3F8042DBFF34F8FBFF36F8FE1E7D9
:1021400004F11000FFF7DEFE04F12400FFF7DAFED1
:10215000D8E738B51D46049C0B4649B92460E063B6
:10216000236401212046FFF7B2FF84F84C5038BDAC
:102170002260F4E740B94FF0500383F31188BFF3B6
:102180006F8FBFF34F8FFEE710B584B01C468446B7
:1021900053B192B189B94FF0500383F31188BFF363
:1021A0006F8FBFF34F8FFEE74FF0500383F311881B
:1021B000BFF36F8FBFF34F8FFEE76AB150230393D6
:1021C000039B502B13D04FF0500383F31188BFF3C0
:1021D0006F8FBFF34F8FFEE70029EFD04FF0500312
:1021E00083F31188BFF36F8FBFF34F8FFEE7039B1D
:1021F000012384F8463000949DF818306046FFF7BC
:10220000A8FF204604B010BDF0B585B0019288B19A
:102210000F461D460446B1B1022D20D1E36B012BC0
:102220001DD04FF0500383F31188BFF36F8FBFF3BE
:102230004F8FFEE74FF0500383F31188BFF36F8F8A
:10224000BFF34F8FFEE7036C002BE5D04FF0500338
:1022500083F31188BFF36F8FBFF34F8FFEE700F05A
:1022600083FE064658B9019B002B48D04FF050031F
:1022700083F31188BFF36F8FBFF34F8FFEE7002604
:102280003DE02A4639462046FFF79DFE636A7BB94A
:1022900048B14FF0E0234FF08052C3F8042DBFF354
:1022A0004F8FBFF36F8F01F04FFB012005B0F0BDE2
:1022B00004F1240000F0BEFD0028F4D04FF0E0232C
:1022C0004FF08052C3F8042DBFF34F8FBFF36F8FD1
:1022D000E9E701F039FB0020E8E702A800F0F0FD93
:1022E000012619E0002384F8443021E0002384F81B
:1022F000453023E02046FFF7B3FE00F07BFC01F001
:1023000001FBA26BE36B9A42BBD3022DB9D0019BB8
:10231000002BDED0002EE0D001F016FB00F0D0FB49
:1023200001F0F0FA94F8442052B2B2F1FF3FD9D054
:1023300094F8452052B2B2F1FF3FD7D001F004FB30
:1023400001A902A800F0C8FDD8B92046FFF71FFE7A
:102350000028CFD0019904F1100000F037FD20468D
:10236000FFF77EFE00F046FC0028C8D14FF0E023C6
:102370004FF08052C3F8042DBFF34F8FBFF36F8F20
:10238000BDE72046FFF76CFE00F034FC00208DE72F
:102390002DE9F84390B10F4616461C460546B1B1EB
:1023A000022C20D1EB6B012B1DD04FF0500383F397
:1023B0001188BFF36F8FBFF34F8FFEE74FF05003CD
:1023C00083F31188BFF36F8FBFF34F8FFEE7036C6A
:1023D000002BE5D04FF0500383F31188BFF36F8FCC
:1023E000BFF34F8FFEE701F0B3FBEFF311884FF01F
:1023F000500383F31188BFF36F8FBFF34F8FAA6B26
:10240000EB6B9A4206D3022C04D0002088F311888B
:10241000BDE8F88395F845904FFA89F9AB6B2246F1
:1024200039462846FFF7CFFDB9F1FF3F06D009F145
:1024300001035BB285F845300120E7E76B6A0BB911
:102440000120E3E705F1240000F0F4FC18B126B107
:1024500001203060DAE70120D8E70120D6E7F0B5A7
:1024600085B0019290B10F460446C1B100F07CFDE9
:10247000064600BB019B002B5ED04FF0500383F358
:102480001188BFF36F8FBFF34F8FFEE74FF05003FC
:1024900083F31188BFF36F8FBFF34F8FFEE7036C99
:1024A000002BE3D04FF0500383F31188BFF36F8FFD
:1024B000BFF34F8FFEE700263EE039462046FFF788
:1024C000BDFD013DA563236923B901F03DFA01205B
:1024D00005B0F0BD04F1100000F0ACFC0028F4D011
:1024E0004FF0E0234FF08052C3F8042DBFF34F8F1D
:1024F000BFF36F8FE9E701F027FA0020E8E702A8B1
:1025000000F0DEFC012621E0002384F8443029E0BD
:10251000002384F845302BE02046FFF7A1FD00F0B2
:1025200069FB09E02046FFF79BFD00F063FB2046B6
:10253000FFF73CFD00283FD101F0E4F9A56B002D29
:10254000BBD1019B002BD6D0002ED8D001F0FCF9D6
:1025500000F0B6FA01F0D6F994F844305BB2B3F16A
:10256000FF3FD1D094F845305BB2B3F1FF3FCFD0FD
:1025700001F0EAF901A902A800F0AEFC0028D1D1CF
:102580002046FFF713FD0028C6D0019904F124006E
:1025900000F01CFC2046FFF763FD00F02BFB002839
:1025A000CAD14FF0E0234FF08052C3F8042DBFF39F
:1025B0004F8FBFF36F8FBFE7002089E70023072B02
:1025C0000CD8074A52F833200AB10133F7E7044A1E
:1025D00042F8331002EBC30250607047704700BFEF
:1025E0000401002070B504460D46164601F08AF934
:1025F00094F844305BB2B3F1FF3F0DD094F845300E
:102600005BB2B3F1FF3F0BD001F09EF9A36B5BB15E
:102610002046FFF725FD70BD002384F84430EDE728
:10262000002384F84530EFE73246294604F12400C0
:1026300000F0E4FBECE70000084B1B681B6823B9C3
:10264000074B4FF0FF321A607047044B1B68DB6882
:10265000DB685A68024B1A60704700BF48010020CF
:10266000F00500202DE9F04780460D4617469946B3
:10267000089EDDF824A00A9C9200A521206B01F0A1
:10268000DFFD236B07F18042013A03EB820727F05D
:102690000707A5B34FF0000CBCF10F0F09D815F8D0
:1026A0000C3004EB0C0282F8343013B10CF1010C45
:1026B000F2E7002384F84330372E00D93726E6624C
:1026C000E66400252565201DFFF727FC04F11800AE
:1026D000FFF723FC2461C6F13806A66164626565D4
:1026E00084F858504A464146384601F0DDF82060EB
:1026F000BAF1000F01D0CAF80040BDE8F08700230E
:1027000084F83430D8E7000038B5002407E004EB43
:10271000840293000E481844FFF7F4FB0134372C71
:10272000F5D90C4D2846FFF7EDFB0B4C2046FFF783
:10273000E9FB0A48FFF7E6FB0948FFF7E3FB094816
:10274000FFF7E0FB084B1D60084B1C6038BD00BF65
:1027500050010020C4050020D8050020FC05002001
:102760002806002014060020480100204C0100200B
:1027700010B5044601F0C6F8224A1368013313600D
:10278000214B1B685BB1214B1B686BB91E4B1B684F
:10279000DA6AE36A9A4207D81B4B1C6004E01A4BC2
:1027A0001C601368012B29D0194A13680133136088
:1027B0006364E06A174B1B68984201D9154B186097
:1027C00000EB8000211D144B03EB8000FFF7A8FBFA
:1027D00001F0BAF80D4B1B687BB10B4B1B68DA6A32
:1027E000E36A9A4209D24FF0E0234FF08052C3F8D7
:1027F000042DBFF34F8FBFF36F8F10BDFFF784FF22
:10280000D2E700BFB00500204401002010060020E0
:10281000BC050020C00500205001002010B5044672
:1028200090F8593063B1012B11D0022B0ED04FF02C
:10283000500383F31188BFF36F8FBFF34F8FFEE711
:10284000006B00F0B5FF204600F0B2FF10BD00F0B5
:10285000AFFFFBE70F4B1B68D3B110B501F052F887
:102860000D4BDB68DC68201DFFF77EFB0B4A13680D
:10287000013B1360074A1368013B136001F064F8E1
:102880002046FFF7CBFF034B1B68002BE6D110BDA2
:10289000704700BFB405002028060020B0050020C6
:1028A00008B5FFF7D7FF074B1B68012BF9D94FF08D
:1028B000E0234FF08052C3F8042DBFF34F8FBFF3D6
:1028C0006F8FEEE75001002070B504460D46174BA0
:1028D0001E68174B18680430FFF746FBB4F1FF3F42
:1028E0000DD03444124B1B685C60A64210D9114BCA
:1028F00018680F4B19680431FFF71DFB70BD002DE0
:10290000EFD00B4B196804310B48FFF709FBF5E7D3
:102910000A4B1868064B19680431FFF70CFB084B8B
:102920001B68A342EAD9064B1C60E7E73C0600207F
:10293000440100204C010020140600204801002022
:10294000F005002030B587B00B9C7CB10C9DB5B173
:102950005C250495049D5C2D1AD04FF0500383F341
:102960001188BFF36F8FBFF34F8FFEE74FF0500317
:1029700083F31188BFF36F8FBFF34F8FFEE74FF0E4
:10298000500383F31188BFF36F8FBFF34F8FFEE7C0
:10299000049D0C9D2C63022485F859400024039467
:1029A000029505AC01940A9C0094FFF75BFE0C981D
:1029B000FFF7DEFE059807B030BD2DE9F04385B086
:1029C0000746884614461E46900000F073FE00B38A
:1029D00081465C2000F06EFE0546B0B1C0F8309034
:1029E000E5B1002385F85930039302950D9B0193BF
:1029F0000C9B00933346224641463846FFF732FE91
:102A00002846FFF7B5FE012005E0484600F0D0FE5D
:102A1000E6E74FF0FF3005B0BDE8F0834FF0FF3040
:102A2000F9E7000010B588B000240594069407AAC1
:102A300006A905A800F0C0FD059B0293069B019323
:102A400000942346079A18491848FFF77BFF184B54
:102A5000186040B100F04CFB012806D0B0F1FF3FF8
:102A600018D008B010BD0020F6E74FF0500383F3F4
:102A70001188BFF36F8FBFF34F8F0E4B4FF0FF32B4
:102A80001A600D4B01221A600C4B00221A6000F0F4
:102A9000D3FFE6E74FF0500383F31188BFF36F8F46
:102AA000BFF34F8FFEE700BFB8450008A12800081C
:102AB000EC050020F0050020100600203C06002058
:102AC000024A136801331360704700BFB805002045
:102AD000014B1868704700BF3C060020F8B53A4B20
:102AE0001B68002B69D1394B1D6801351D60C5B9C4
:102AF000374B1B681B6843B14FF0500383F31188B9
:102B0000BFF36F8FBFF34F8FFEE7314A1168314B30
:102B1000186810601960304A136801331360FFF7BA
:102B20008BFD2E4B1B68AB423DD900272C4B1B68FD
:102B3000DB6A03EB83039A002A4B9B58012B00D9D5
:102B40000127294B1B68002B3CD001273AE00127C5
:102B50001F4B1B681B6843B31D4B1B68DB68DC689D
:102B600063689D4226D3261D3046FFF7FDF9A36A10
:102B70001BB104F11800FFF7F7F9E36A1B4A12686A
:102B8000934201D9194A136003EB83039A0031463B
:102B900014481044FFF7C4F9E26A114B1B68DB6A62
:102BA0009A42D4D2D4E70027D2E70C4B4FF0FF3241
:102BB0001A60BBE7094A1360B8E70D4A136801338E
:102BC000136000273846F8BDB80500203C060020F9
:102BD000480100204C010020F4050020F0050020F1
:102BE000440100205001002040060020C0050020C4
:102BF000F805002038B5354B1B6843B94FF050033A
:102C000083F31188BFF36F8FBFF34F8FFEE700F0A0
:102C100079FE2E4B1A68013A1A601B68002B4FD1BF
:102C20002B4B1B680BB900244BE00024294B1B687D
:102C30001BB3284BDB68DC6804F11800FFF794F93C
:102C4000251D2846FFF790F9E06A234B1B68984240
:102C500001D9214B186000EB800029461F4B03EB84
:102C60008000FFF75DF9E26A1D4B1B68DB6A9A4240
:102C7000DCD31C4B01221A60D8E70CB1FFF7DCFC57
:102C8000194B1C6884B9174B1C68D4B14FF0E02372
:102C90004FF08052C3F8042DBFF34F8FBFF36F8FF7
:102CA00001240EE0013C07D0FFF718FF0028F9D0FF
:102CB0000C4B01221A60F5E70B4B00221A60E2E789
:102CC000002400F041FE204638BD00BFB8050020BA
:102CD000B0050020FC050020C005002050010020A8
:102CE0004401002040060020F805002010B5A8B1DE
:102CF0000446104B1B6843B14FF0500383F3118817
:102D0000BFF36F8FBFF34F8FFEE7FFF7D9FE0021B0
:102D10002046FFF7D9FDFFF76DFF48B94FF0E023DC
:102D20004FF08052C3F8042DBFF34F8FBFF36F8F66
:102D300010BD00BFB80500201F4B1B681BB11F4B07
:102D400001221A6070471D4B00221A601C4B1B6841
:102D500003EB83018A001B498A585AB90BB1013B26
:102D6000F6E74FF0500383F31188BFF36F8FBFF383
:102D70004F8FFEE703EB830082000A4450684068EF
:102D8000506003EB830C4FEA8C02083211448842F6
:102D90000BD003EB830291000A4A0A445268D168BF
:102DA000094A1160064A1360704740686246910004
:102DB000044A0A445060ECE7B805002040060020B1
:102DC000C0050020500100204401002058B110B57A
:102DD0000C46094A11681831FFF7ADF80121204669
:102DE000FFF772FD10BD4FF0500383F31188BFF35E
:102DF0006F8FBFF34F8FFEE74401002038B570B1ED
:102E00000D4614460A4A11681831FFF789F80CB1CB
:102E10004FF0FF3521462846FFF756FD38BD4FF0ED
:102E2000500383F31188BFF36F8FBFF34F8FFEE71B
:102E30004401002038B5C368DC6824B304F11805E8
:102E40002846FFF791F8184B1B682BBB251D284619
:102E5000FFF78AF8E06A154B1B68984201D9134BBB
:102E6000186000EB80002946114B03EB8000FFF750
:102E700057F8E26A0F4B1B68DB6A9A4211D90120AE
:102E80000D4B186038BD4FF0500383F31188BFF32A
:102E90006F8FBFF34F8FFEE729460848FFF740F8D2
:102EA000E7E70020EEE700BFB8050020C0050020DE
:102EB000500100204401002040060020FC050020B5
:102EC000034B1B680360034B1B684360704700BFE4
:102ED000F40500203C060020F8B5C8B10C460546B4
:102EE000F9B100F00FFD1B4B19686B68C81A226816
:102EF000B2F1FF3F26D0184E36682F68B74201D096
:102F00008B4224D9824215D80023236001241AE081
:102F10004FF0500383F31188BFF36F8FBFF34F8FD0
:102F2000FEE74FF0500383F31188BFF36F8FBFF3B9
:102F30004F8FFEE75B1A134423602846FFF7C0FF5C
:102F4000002400E0002400F0FFFC2046F8BD01242E
:102F5000F9E700BF3C060020F4050020014B0122E8
:102F60001A60704740060020054B1B6833B1054BC3
:102F70001B680BB10020704702207047012070478A
:102F800010060020B805002000283BD038B50446C4
:102F90001E4B1B68834208D04FF0500383F3118807
:102FA000BFF36F8FBFF34F8FFEE7036D43B94FF051
:102FB000500383F31188BFF36F8FBFF34F8FFEE78A
:102FC000013B0365C16AC26C91421DD00BB1002068
:102FD00038BD051D2846FEF7C7FFE06CE062C0F172
:102FE0003803A3610A4B1B68984201D9084B18604B
:102FF00000EB80002946074B03EB8000FEF790FFB3
:103000000120E5E7002070470020E1E744010020AF
:10301000C005002050010020064B1A6813682BB928
:103020000123036023B9D368186870470023F8E7C9
:10303000002070474406002008B5416000619142BD
:103040000CD8D21A83699A4201D3012008BD011D10
:10305000094B1868FEF76FFF0020F7E79A4201D28C
:10306000994206D2011D054B1868FEF764FF002047
:10307000ECE70120EAE700BF4806002044060020F4
:1030800030B583B000F03EFC114B1B681BB100F063
:103090005BFC03B030BD0F4D2846FEF733FF0E4CEE
:1030A0002046FEF72FFF0D4B1D600D4B1C600023CB
:1030B00000930C4B0C4A10210A20FFF75BF8044BDD
:1030C00018600028E3D00949FFF778FADFE700BF6E
:1030D00068070020EC0600200007002044060020BE
:1030E00048060020180700204C060020C0450008B4
:1030F00010B588B0FFF7C4FF124B1B68CBB100249A
:103100000594069407AA06A905A800F061FA059B94
:103110000293069B0193022300932346079A0A49D0
:103120000A48FFF70FFC0A4B186010B1012008B0E5
:1031300010BD4FF0500383F31188BFF36F8FBFF3BF
:103140004F8FFEE768070020C84500085534000887
:103150006C070020B8B19C4603461848006858B375
:1031600000B585B000910192029305291CDCFFF7A0
:10317000FBFE022810D000231A4669460F4800685B
:10318000FFF742F815E04FF0500383F31188BFF3C7
:103190006F8FBFF34F8FFEE70023069A69460748FB
:1031A0000068FFF731F804E0002362466946FFF744
:1031B000EFF805B05DF804FB0020704768070020B9
:1031C00070B582B01B4B1B681A6862B3DB681E685F
:1031D000DC68251D2846FEF7C7FE236A204698476F
:1031E00094F8283013F0040FECD0A36933449E42C6
:1031F00007D26360246129460E4B1868FEF79BFED8
:10320000E0E7002100910B4632462046FFF7A2FF7F
:103210000028D7D14FF0500383F31188BFF36F8F8D
:10322000BFF34F8FFEE7044A10680249086013603D
:1032300002B070BD440600204806002038B505469F
:10324000FFF746FC0446074B1B68834205D8002362
:103250002B60044B1C60204638BDFFF7B1FF0123F3
:103260002B60F6E71407002070B582B006460D46C5
:1032700017490968C968CC68201DFEF775FE94F8E7
:1032800028C01CF0040F08D12CF0010C84F828C0D1
:10329000236A2046984702B070BDA16933462A468A
:1032A00031442046FFF7C8FE0028F1D000210091EC
:1032B0000B4632462046FFF74DFF0028E8D14FF07D
:1032C000500383F31188BFF36F8FBFF34F8FFEE777
:1032D0004406002070B582B006460C46FFF7F0FBAE
:1032E00001A8FFF7ABFF019B33BB05460CB9B04209
:1032F00019D224B1124A12681268DAB9012422469E
:10330000711B104B1868FFF76DF9FFF773FCA8B934
:103310004FF0E0234FF08052C3F8042DBFF34F8FDE
:10332000BFF36F8F0AE0FFF765FC29463046FFF7D1
:103330009BFF03E01C46E2E7FFF75CFC02B070BDB8
:10334000480600206807002010B588B002E0049B02
:10335000002B0FDA002204A93D4B1868FFF77FF815
:10336000002873D0049B002BF1DA07990698059B7F
:103370009847ECE7069C636913B1201DFEF7F4FD46
:1033800003A8FFF75BFF049B092BE3D8DFE803F0FA
:103390000505053037500505303794F8283043F0DF
:1033A000010384F82830059BA16902461944204690
:1033B000FFF742FE0028CDD0236A2046984794F8B4
:1033C000283013F0040FC5D0A269002100910B46EC
:1033D000059802442046FFF7BDFE0028BAD14FF001
:1033E000500383F31188BFF36F8FBFF34F8FFEE756
:1033F00094F8283023F0010384F82830AAE794F8E1
:10340000283043F0010384F828300599A16131B1D7
:103410000346024601442046FFF70EFE9AE74FF0AE
:10342000500383F31188BFF36F8FBFF34F8FFEE715
:1034300094F8283013F0020F04D023F0010384F82D
:10344000283087E7204600F0B3F983E708B010BDC5
:103450006807002000B583B001A8FFF7DDFD0199E2
:10346000FFF738FFFFF770FFF6E708B54FF0E023EE
:103470001B69FFF779FD012800D108BD00F0B2FA01
:10348000FBE70000EFF305832BB9064B186828B95A
:1034900001221A6070476FF0050070474FF0FF304F
:1034A000704700BFCC090020EFF3058373B90A4BC6
:1034B0001B68012B0DD110B50024084BDC77064B9F
:1034C00002221A60FFF7AEFA204610BD6FF0050029
:1034D00070474FF0FF307047CC09002000ED00E04E
:1034E000F0B587B000240594EFF3058474BB68B38E
:1034F00022B31568936903B918235C1E372C49D889
:10350000546814F0010F47D156696EB14FEA960C1A
:1035100094682CB1D7685B2F02D9176907B1C6B977
:103520002CB14FF0FF340EE04FF0800CF0E7D46880
:103530008CB9146994B14FF0FF3404E015460024AF
:1035400018234FF0800C012C0AD0ACB1059807B0BD
:10355000F0BD0124F7E74FF0FF34F4E70024F2E771
:10356000146992680292019400930B4662462946C0
:10357000FFF7E8F90590E9E705AA019200930B46E9
:103580001FFA8CF22946FFF718FA0128DED0002333
:103590000593DBE70020DAE70020D8E708B5EFF372
:1035A000058333B908B9002008BDFFF79FFB002051
:1035B000FAE76FF00500F7E7034B0360034B0B607E
:1035C00080231360704700BF70090020700700203F
:1035D000034B0360034B0B604FF480731360704721
:1035E000D00D0020D0090020134A12F0070F1FD081
:1035F000D11D21F00701C1F53B63083313440A468E
:103600000E480260002141601344083B23F0070389
:103610000B48036059601960991A51601360094B97
:103620001960094B1960094B4FF000421A6070474E
:1036300040F6B833E4E700BF300E0020FC1900204C
:103640002C0E0020F0190020EC190020E8190020B1
:10365000164B1A461B688342FBD3516802EB010CE0
:10366000844509D0416800EB010C634509D0036033
:10367000904219D010607047406801445160104674
:10368000F0E710B40A4C2468A3420BD05B681944DD
:10369000416013681B680360904200D010605DF8C1
:1036A000044B70470460F7E7704700BFFC19002027
:1036B0002C0E002070B50546FFF702FA364B1B684A
:1036C000A3B1364B1B681D424ED135B1083515F0FC
:1036D000070F02D025F007050835002D46D0304BE6
:1036E0001B68AB4251D32F4A146804E0FFF77CFFFC
:1036F000E7E722461C466368AB4202D22368002BF0
:10370000F7D1254B1B68A34241D0166808362368C1
:10371000136063685B1B102B10D9601910F0070F42
:1037200008D04FF0500383F31188BFF36F8FBFF3BE
:103730004F8FFEE743606560FFF78AFF62681849B4
:103740000B689B1A0B60184909688B4201D2164915
:103750000B60124B1B681343636000232360134A02
:1037600013680133136002E0002600E00026FFF733
:1037700041FA16F0070F0CD04FF0500383F3118875
:10378000BFF36F8FBFF34F8FFEE70026EFE70026F2
:10379000EDE7304670BD00BF2C0E0020E819002078
:1037A000EC190020FC190020F0190020F419002069
:1037B000002834D038B50446A0F1080550F8043C80
:1037C000174A1268134208D14FF0500383F311884F
:1037D000BFF36F8FBFF34F8FFEE750F8081C41B166
:1037E0004FF0500383F31188BFF36F8FBFF34F8FF8
:1037F000FEE723EA020340F8043CFFF761F954F8BE
:10380000041C084A13680B4413602846FFF720FF86
:10381000054A136801331360FFF7ECF938BD7047B0
:10382000E8190020EC190020F819002082B00023CC
:1038300001930D4B1B68B3F1FF3F08D04FF05003CD
:1038400083F31188BFF36F8FBFF34F8FFEE74FF005
:10385000500383F31188BFF36F8FBFF34F8F019B2A
:10386000002BFCD002B070470C0000200848006814
:10387000006880F308884FF0000080F3148862B677
:1038800061B6BFF34F8FBFF36F8F00DF00BF000043
:1038900008ED00E0DFF80C00016841F47001016000
:1038A0007047000088ED00E04FF0807340F8043C62
:1038B00021F0010140F8081C054B40F80C3C40F891
:1038C000202C6FF0020340F8243C4438704700BFBE
:1038D0002D3800080000000000000000000000007B
:1038E000074B19680868B0E8F04F80F30988BFF308
:1038F0006F8F4FF0000080F311887047AFF30080A6
:10390000440100204FF0500383F31188BFF36F8F01
:10391000BFF34F8F0B4A136801331360012B00D0A4
:1039200070474FF0E023D3F8043D13F0FF0FF7D0BA
:103930004FF0500383F31188BFF36F8FBFF34F8FA6
:10394000FEE700BF0C000020094B1B6843B94FF095
:10395000500383F31188BFF36F8FBFF34F8FFEE7E0
:10396000013B034A13600BB983F31188704700BF12
:103970000C0000200000000000000000000000001B
:10398000EFF30980BFF36F8F154B1A681EF0100F0D
:1039900008BF20ED108A20E9F04F10602DE90900E2
:1039A0004FF0500080F31188BFF34F8FBFF36F8F3C
:1039B000FFF7C2F94FF0000080F3118809BC1968C5
:1039C0000868B0E8F04F1EF0100F08BFB0EC108A86
:1039D00080F30988BFF36F8F704700BFAFF300809B
:1039E0004401002008B54FF0500383F31188BFF362
:1039F0006F8FBFF34F8FFFF771F828B14FF0E023BF
:103A00004FF08052C3F8042D002383F3118808BDC2
:103A10004FF0E022002313619361054B1B680549B9
:103A2000A1FB03139B09013B5361072313617047FB
:103A300008000020D34D62104FF0E023D3F8002D92
:103A40003D4B9A421CD04FF0E023D3F8002D3B4B66
:103A50009A421ED030B583B0394B1A78D2B2019257
:103A6000FF221A701B78DBB28DF803309DF803300B
:103A700003F05003334A1370334B07221A601BE0E4
:103A80004FF0500383F31188BFF36F8FBFF34F8F55
:103A9000FEE74FF0500383F31188BFF36F8FBFF33E
:103AA0004F8FFEE7284A1368013B13609DF80330EF
:103AB0005B00DBB28DF803309DF8033013F0800F0C
:103AC000F0D1214B1B68032B08D04FF0500383F338
:103AD0001188BFF36F8FBFF34F8FFEE71B021A4AA7
:103AE000136003F4E0631360019BDBB2144A1370AC
:103AF0004FF0E024D4F8203D43F47003C4F8203D97
:103B0000D4F8203D43F07043C4F8203DFFF780FF18
:103B100000250E4B1D60FFF7BDFED4F8343F43F087
:103B20004043C4F8343FFFF7A1FEFFF705F9FFF764
:103B30007DFE284603B030BD71C20F4170C20F41F7
:103B400000E400E0041A0020081A00200C00002005
:103B5000EFF305830F2B0FD9114A9B5CDBB2114A9F
:103B600012789A4208D94FF0500383F31188BFF3BB
:103B70006F8FBFF34F8FFEE74FF0E023D3F80C3D7C
:103B800003F4E063084A1268934208D94FF05003E7
:103B900083F31188BFF36F8FBFF34F8FFEE770473A
:103BA000F0E300E0041A0020081A00200369C2684C
:103BB000934204D881688A1A1344581E7047981A91
:103BC000013870472DE9F843044688461646C56813
:103BD0008768A7EB0509914507D94068284400F09C
:103BE00021FB3544E560BDE8F88340684A46284437
:103BF00000F018FBED1B35442A4608EB090160680C
:103C000000F010FBE560EEE72DE9F8430646884634
:103C10001746C5684FF0000918E05B1B5A1EB368D1
:103C20005C1B944228BF1446BC4228BF3C467068C7
:103C300022464146284400F0F5FAA144A0443F1B27
:103C40002544B368AB4209D0F5604FB133699D425A
:103C5000E3D3B2685B1B1A44013AE0E70025F3E7BF
:103C60004846BDE8F8830000124B03221A615A61EE
:103C700011499961114ADA614FF480621A62002297
:103C80009A625A62DA6219660D495966402199664C
:103C90001A67DA665A670B4A1068C3F807000A4ABF
:103CA00092E8030018609980090C997120229A719A
:103CB000704700BF0C1A0020D0450008F41A0020FD
:103CC000B41A0020DC450008E0450008F8B50F46AE
:103CD0001646184B451C05EB450503EBC50500EBE7
:103CE000400003EBC003DC6A012C11D0022C1CD075
:103CF00014B100242046F8BD2846FFF757FF86423E
:103D0000F8D8324639462846FFF75CFF3446F1E7DB
:103D10002846FFF74BFF3446864228BF044622461A
:103D200039462846FFF74EFFE4E72846FFF76CFFC9
:103D30000446DFE70C1A0020F8B504460D46164687
:103D4000094B1B786BB1EFF311874FF0200181F322
:103D50001188324629462046FFF7B8FF87F31188BD
:103D6000F8BDFFF781FFEEE70C1A002010B50446FE
:103D70008268531C4068834205D820688154A36040
:103D8000E3680133E360A26863689A4200D010BD23
:103D900021682069FFF7D0FFA368984203D04FF055
:103DA000FF33E360F3E70023A360F0E72DE9F84F6A
:103DB00081460F4615461E46DDF828A00B9A0B4695
:103DC0004FF0010803E0B3FBF5F308F10108AB4243
:103DD000F9D2B04500D2B04612F0010B18D1BAF1B9
:103DE000000F15D012F0020F02D0BEB1202400E067
:103DF0002024BAF1000F0BD0C24509D90AF1FF3ACD
:103E000021464846FFF7B2FFD9F80C30002BF0DA14
:103E1000D9F80C30002B25DB012404E03024E8E73E
:103E2000013E05FB04F4012EFAD8B7FBF4F39D42E2
:103E3000F7D900E01C46B7FBF4F304FB1377124AF2
:103E4000D15C4846FFF792FFD9F80C30002B03DB1A
:103E5000B4FBF5F3AC42EDD2BBF1000F02D0BAF1E6
:103E6000000F01D1BDE8F88FBAF1000FFAD0C245BA
:103E7000F8D90AF1FF3A20214846FFF777FFD9F831
:103E80000C30002BF0DAEDE7E84500082DE9F047AB
:103E900082B007468846154699460A9EDDF82CA052
:103EA00081EAE17CACEBE17C012402E09CFBF5FCC7
:103EB00001346545FADD4C4500D24C4636B1B8F1C7
:103EC000000F02DB1AF0040F00D0013E1AF0020FBF
:103ED00002D0B9F1000F03D01AF0010F00D1AEB932
:103EE000FB68002B0FDBB8F1000F1CDB1AF0040F8E
:103EF00020D1FB68002B06DB0AF00303022B1ED047
:103F0000FB68002B2DDA02B0BDE8F087002EE7D069
:103F1000A642E5D9013E20213846FFF727FFFB687E
:103F2000002BF3DADCE7C8F100082D213846FFF753
:103F30001DFFDEE72B213846FFF718FFD9E7B9F15F
:103F4000000FDDD1002EDBD0002ED9D0A642D7D96C
:103F5000013E30213846FFF709FFFB68002BF3DAFA
:103F6000CEE7CDF804A000964B462A464146384697
:103F7000FFF71CFFC7E70000F0B599B006460C46F6
:103F8000154603AB13934023149300231593179006
:103F900016938BE00020012211E040F00100013473
:103FA0000CE040F00200013408E040F0040001346D
:103FB00004E040F00800013400E0002212B323784E
:103FC000233B0D2BF9D801A151F823F0B33F000892
:103FD000BB3F0008BB3F0008BB3F0008BB3F0008D9
:103FE000BB3F0008BB3F0008BB3F0008AB3F0008D9
:103FF000BB3F00089B3F0008BB3F0008BB3F0008D9
:10400000A33F00082378A3F13001C9B2092907D8DA
:10401000013402EB820203EB4203A3F13002F1E729
:104020002E2B02D00023217814E00134002306E077
:10403000013403EB830301EB4301A1F13003217849
:10404000A1F1300C5FFA8CFCBCF1090FF0D9EAE762
:1040500014F8011F6C29FBD06829F9D025296DD0EF
:1040600020D378291ED858291CD35839202919D88B
:10407000DFE801F03D18181818181818181818114A
:104080002718181818181818181818185718184832
:10409000183218183D002B681A1D2A60197813A8C9
:1040A000FFF764FE0134169B002B4CDB14F8011B58
:1040B000002948D025293FF46DAF13A8FFF756FE1D
:1040C000F1E729680F1D2F600968019000920A220C
:1040D00013A8FFF7DBFEE5E729680F1D2F600968CD
:1040E000019000920A2213A8FFF760FEDAE7296820
:1040F0000F1D2F60096801900092102213A8FFF78E
:1041000055FECFE72B681A1D2A601F6817F8011BA0
:104110000029C7D013A8FFF729FE169B002BF5DA5C
:10412000C0E72B681A1D2A60196800230193082331
:104130000093102213A8FFF739FEB3E7252113A837
:10414000FFF714FEAEE7169B002B05DD159A32B97A
:10415000159A169B13441693169819B0F0BD03A92F
:104160003046FFF7E9FDF3E70EB400B582B003ABCC
:1041700053F8041B019301AAFFF7FEFE02B05DF89D
:1041800004EB03B070470000DFF834D0FDF7B0FE59
:104190000C480D490D4A002302E0D458C4500433A2
:1041A000C4188C42F9D30A4A0A4C002301E0136078
:1041B0000432A242FBD300F011F8FCF7E1F8FEE76D
:1041C0000000012000000020100000201046000820
:1041D00010000020F41E0020FEE7000070B50D4D19
:1041E0000D4C641BA4100026A64209D10B4D0C4CAB
:1041F00000F092F9641BA4100026A64205D170BD00
:1042000055F8043B98470136EEE755F8043B9847CC
:104210000136F2E7004600080046000800460008A4
:10422000044600080A44914200F1FF3300D1704770
:1042300010B511F8014B03F8014F9142F9D110BDAF
:1042400002440346934200D1704703F8011BF9E78B
:104250002DE9F047089E0D4604460F46002B4AD133
:104260008A42944665D9B2FA82F343B102FA03FC5A
:10427000C3F120029F4020FA02F217439C404FEA0C
:104280001C4E1FFA8CF5B7FBFEF1220C0EFB1177CA
:1042900042EA074201FB05F090420AD91CEB0202F8
:1042A00001F1FF3780F01C81904240F21981023900
:1042B0006244121AA4B2B2FBFEF00EFB102244EAD2
:1042C000024400FB05F5A5420AD91CEB040400F1E9
:1042D000FF3280F00781A54240F204816444023835
:1042E00040EA0140641B00211EB1DC400023C6E906
:1042F0000043BDE8F0878B4208D9002E00F0ED8026
:104300000021C6E900050846BDE8F087B3FA83F14D
:10431000002949D1AB4202D3824200F2F880841ACC
:1043200065EB030201201746002EE2D0C6E90047E4
:10433000DFE702B9FFDEB2FA82F3002B40F0908093
:104340008A1A4FEA1C471FFA8CFE0121B2FBF7F5CF
:1043500007FB1520220C42EA00420EFB05F09042BA
:1043600008D91CEB020205F1FF3802D2904200F29C
:10437000CB804546121AA4B2B2FBF7F007FB10221D
:1043800044EA02440EFB00FEA64508D91CEB0404D7
:1043900000F1FF3202D2A64500F2BB801046A4EB2A
:1043A0000E0440EA05409FE7C1F120078B4022FA46
:1043B00007FC4CEA030C05FA01F420FA07F3FD4070
:1043C0004FEA1C492343B5FBF9F81FFA8CFE09FBA1
:1043D00018551C0C44EA054408FB0EF5A54202FAE8
:1043E00001F200FA01F00BD91CEB040408F1FF3ACA
:1043F00080F08880A54240F28580A8F102086444DC
:10440000641B9DB2B4FBF9F309FB134445EA044471
:1044100003FB0EFEA64508D91CEB040403F1FF358F
:104420006CD2A6456AD9023B644443EA0843A3FB25
:104430000295A4EB0E04AC42C846AE4656D353D008
:1044400056B1B0EB080264EB0E0404FA07F7CA4059
:10445000CC401743C6E9007418460021BDE8F08738
:10446000C3F1200102FA03FC20FA01F225FA01F15E
:104470009D402A434FEA1C471FFA8CFEB1FBF7F020
:1044800007FB1015110C41EA054100FB0EF58D42AA
:1044900004FA03F408D91CEB010100F1FF382FD214
:1044A0008D422DD902386144491B92B2B1FBF7F518
:1044B00007FB151142EA014205FB0EF1914208D9B2
:1044C0001CEB020205F1FF3816D2914214D9023DCD
:1044D0006244521A45EA004138E73146304608E75F
:1044E0003946E6E61046FBE64845A9D2B9EB020894
:1044F00065EB0C0E013BA3E74546EAE72B4694E744
:104500004046D1E7D0467BE7023D624432E70846A9
:104510000AE76444023842E7F8B500BFF8BC08BCBB
:104520009E467047F8B500BFF8BC08BC9E46704771
:10453000493A20746573742D646174610000000051
:1045400064656661756C745461736B004045000866
:10455000000000000000000000000000000000005B
:104560000002000018000000000000000000000031
:104570000000000000000000010203040607080913
:104580000000000001020304A0860100400D0300AA
:10459000801A060000350C0040420F0080841E0087
:1045A00000093D0000127A000024F40000366E017C
:1045B0000048E801006CDC0249444C450000000062
:1045C000546D725100000000546D722053766300E8
:1045D0005465726D696E616C0000000052545400A5
:1045E0005345474745520000303132333435363772
:0845F0003839414243444546BD
:0845F80058FCFF7F01000000E8
:084600002D020008000000007B
:0846080005020008000000009B
:10461000010000001000000000093D00AAAAAAAA9B
:040000050800418925
:00000001FF
