:020000040800F2
:1000000000000120214A00088F0400089504000820
:100010009B040008A1040008A704000800000000D9
:10002000000000000000000000000000913E0008F9
:10003000AD04000800000000713F000839380008D6
:10004000714A0008714A0008714A0008714A0008A4
:10005000714A0008714A0008714A0008714A000894
:10006000714A0008714A0008714A0008714A000884
:10007000714A0008714A0008714A0008714A000874
:10008000714A0008714A0008714A0008714A000864
:10009000714A0008714A0008714A0008714A000854
:1000A000714A0008714A0008714A0008714A000844
:1000B000714A00080000000000000000714A0008BA
:1000C000714A0008714A0008714A0008714A000824
:1000D000714A0008714A0008714A0008714A000814
:1000E000BB040008714A0008000000000000000086
:1000F0000000000000000000000000000000000000
:1001000000000000714A000800000000714A000869
:100110000000000000000000714A0008CD04000843
:10012000714A0008714A0008714A0008714A0008C3
:10013000714A0008000000000000000000000000FC
:10014000714A0008714A0008714A00080000000066
:10015000714A0008714A0008714A0008714A000893
:10016000714A0008714A0008714A00080000000046
:10017000714A0008714A00080000000000000000F9
:10018000714A0008714A0008714A00080000000026
:1001900053B94AB9002908BF00281CBF4FF0FF31EE
:1001A0004FF0FF3000F00CB8ADF1080C6DE904CE53
:1001B00004F09AFCDDF804E0DDE9022304B07047A6
:1001C000704700BF0348044B834202D0034B03B186
:1001D00018477047100000201000002000000000A9
:1001E0000548064B1B1AD90F01EBA301491002D099
:1001F000034B03B118477047100000201000002087
:100200000000000010B5064C237843B9FFF7DAFF71
:10021000044B13B10448AFF300800123237010BDD9
:100220001000002000000000B04D000808B5054B8C
:100230001BB105490548AFF30080BDE80840FFF752
:10024000CFBF00BF0000000014000020B04D000828
:1002500080B582B000AF1649002004F0C9FB00F061
:1002600015FA00F031F800F0B1F800F07FF803F073
:10027000F3FA104A0021104803F012FB03460F4A1C
:1002800013604FF480610E4801F04AFD0346FB7194
:10029000FB79002B0CBF01230023DBB21A4609496E
:1002A000002004F0A5FBFA2000F028FAE9E700BFDF
:1002B000D44D00080C4E000851040008B000002086
:1002C00000040048E44D000880B596B000AF07F187
:1002D000140344220021184604F0FEFB3B46002292
:1002E0001A605A609A60DA601A614FF4007001F087
:1002F00061FD0346002B01D000F0C4F810237B61A0
:100300000123FB6200233B6360237B630223FB63C7
:1003100001233B6401237B642823BB640723FB6424
:1003200002233B6502237B6507F11403184600F0A6
:1003300009FA0346002B01D000F0A4F80F233B601C
:1003400003237B600023BB600023FB6000233B6131
:100350003B460421184600F009FE0346002B01D05D
:1003600000F090F800BF5837BD4680BD80B500AFA3
:10037000144B154A1A60134B4FF4E1325A60114B7B
:1003800000229A600F4B0022DA600E4B00221A61A5
:100390000C4B0C225A610B4B00229A61094B002234
:1003A000DA61084B00221A62064B00225A620548A5
:1003B00002F0B8F80346002B01D000F063F800BF4C
:1003C00080BD00BF2C0000200038014080B588B0FF
:1003D00000AF07F10C0300221A605A609A60DA60DD
:1003E0001A61194BDB6C184A43F00203D364164BB5
:1003F000DB6C03F00203BB60BB68134BDB6C124A7F
:1004000043F00103D364104BDB6C03F001037B600A
:100410007B684FF48063FB604FF488133B610023DB
:100420007B6107F10C031946084801F0FFFA00222E
:100430000521282001F0CCFD282001F0E5FD00BFBA
:100440002037BD4680BD00BF0010024000040048B8
:1004500080B582B000AF7860012003F0B3FAFBE70B
:1004600080B582B000AF78607B681B68044A934215
:1004700001D100F023F900BF0837BD4680BD00BFA1
:100480000014004080B400AF72B600BFFEE780B435
:1004900000AFFEE780B400AFFEE780B400AFFEE738
:1004A00080B400AFFEE780B400AFFEE780B400AFD9
:1004B00000BFBD465DF8047B704780B500AF4FF4C8
:1004C000806001F045FC00BF80BD000080B500AF3A
:1004D000024801F05DFE00BF80BD00BFB4000020F7
:1004E00080B582B000AF114B1B6E104A43F0010380
:1004F00013660E4B1B6E03F001037B607B680B4B96
:100500009B6D0A4A43F080539365084B9B6D03F043
:1005100080533B603B6800220F216FF0010001F027
:1005200057FD00BF0837BD4680BD00BF0010024028
:1005300080B5A0B000AF786007F16C0300221A60AC
:100540005A609A60DA601A6107F110035C22002198
:10055000184604F0C1FA7B681B681F4A934237D1E2
:1005600001233B6100233B6307F11003184600F0B1
:1005700053FF0346002B01D0FFF784FF174B1B6E80
:10058000164A43F480431366144B1B6E03F48043F6
:10059000FB60FB68114BDB6C104A43F00103D36432
:1005A0000E4BDB6C03F00103BB60BB684FF4C06310
:1005B000FB6602233B6700237B670323BB6707239C
:1005C000FB6707F16C0319464FF0904001F02EFADB
:1005D00000BF8037BD4680BD00380140001002409A
:1005E00080B58CB000AF78600023FB620023BB6253
:1005F00000227968372001F0EBFC372001F004FD80
:100600001E4B9B6D1D4A43F0200393651B4B9B6D56
:1006100003F02003FB60FB6807F1100207F11403ED
:100620001146184600F066FE00F038FEF862FB6ADC
:10063000134AA2FB03239B0C013BBB62114B124AE2
:100640001A60104B40F2E732DA600E4ABB6A536020
:100650000C4B00221A610B4B00229A60094801F0F2
:10066000E1FC0346002B04D1064801F03DFD0346A2
:1006700000E0012318463037BD4680BD001002401F
:1006800083DE1B43B40000200014004080B582B01C
:1006900000AF0023FB71032001F08FFC0F20FFF758
:1006A0009FFF0346002B02D00123FB7101E0FFF7FF
:1006B00017FFFB7918460837BD4680BD80B400AFF0
:1006C000064B1B781A46064B1B681344044A1360FA
:1006D00000BFBD465DF8047B704700BF04000020EA
:1006E0000001002080B400AF034B1B681846BD46D4
:1006F0005DF8047B704700BF0001002080B584B026
:1007000000AF7860FFF7EEFFB8607B68FB60FB68C6
:10071000B3F1FF3F05D00A4B1B781A46FB68134420
:10072000FB6000BFFFF7DEFF0246BB68D31AFA6822
:100730009A42F7D800BF00BF1037BD4680BD00BF4A
:100740000400002080B588B000AF78607B68002B83
:1007500002D1012300F002BC964B9B6803F00C030E
:10076000BB61944BDB6803F003037B617B681B6810
:1007700003F01003002B00F0E480BB69002B07D0CE
:10078000BB690C2B40F08B807B69012B40F087808C
:10079000884B1B6803F00203002B05D07B689B6924
:1007A000002B01D10123D9E37B681A6A814B1B68B6
:1007B00003F00803002B04D07E4B1B6803F0F0030A
:1007C00005E07C4BD3F894301B0903F0F00393420F
:1007D00023D27B681B6A184600F0BEFD0346002B3F
:1007E00001D00123BAE3734B1B68724A43F008033C
:1007F0001360704B1B6823F0F0027B681B6A6D4925
:1008000013430B606B4B5B6823F47F427B68DB69AF
:100810001B02684913434B6025E0664B1B68654A21
:1008200043F008031360634B1B6823F0F0027B68FE
:100830001B6A604913430B605E4B5B6823F47F4285
:100840007B68DB691B025B4913434B60BB69002B70
:1008500009D17B681B6A184600F07EFD0346002B19
:1008600001D001237AE300F081FC0246514B9B68E2
:100870001B0903F00F035049CB5C03F01F0322FA5E
:1008800003F34E4A13604E4B1B681846FFF7A8FE51
:100890000346FB73FB7B002B52D0FB7B5EE37B6844
:1008A0009B69002B32D0434B1B68424A43F0010343
:1008B0001360FFF717FF386108E0FFF713FF0246E8
:1008C0003B69D31A022B01D9032347E3394B1B6839
:1008D00003F00203002BF0D0364B1B68354A43F07F
:1008E00008031360334B1B6823F0F0027B681B6A1C
:1008F000304913430B602F4B5B6823F47F427B68C6
:10090000DB691B022B4913434B601AE0294B1B6820
:10091000284A23F001031360FFF7E4FE386108E082
:10092000FFF7E0FE02463B69D31A022B01D90323ED
:1009300014E3204B1B6803F00203002BF0D100E00E
:1009400000BF7B681B6803F00103002B73D0BB69F9
:10095000082B05D0BB690C2B0ED17B69032B0BD167
:10096000144B1B6803F40033002B63D07B685B6877
:10097000002B5FD10123F1E27B685B68B3F5803F18
:1009800006D10C4B1B680B4A43F48033136025E0FF
:100990007B685B68B3F5A02F14D1064B1B68054A32
:1009A00043F480231360034B1B68024A43F48033F3
:1009B000136013E000100240304E000808000020D1
:1009C00000000020A04B1B689F4A23F48033136073
:1009D0009D4B1B689C4A23F4802313607B685B68F3
:1009E000002B13D0FFF77EFE386108E0FFF77AFE98
:1009F00002463B69D31A642B01D90323AEE2924B22
:100A00001B6803F40033002BF0D014E0FFF76AFEFC
:100A1000386108E0FFF766FE02463B69D31A642B93
:100A200001D903239AE2884B1B6803F40033002B9F
:100A3000F0D100E000BF7B681B6803F00203002BCD
:100A400060D0BB69042B05D0BB690C2B19D17B6925
:100A5000022B16D17C4B1B6803F48063002B05D05E
:100A60007B68DB68002B01D1012377E2764B5B6862
:100A700023F0F8527B681B691B06734913434B60D4
:100A800040E07B68DB68002B23D06F4B1B686E4A0D
:100A900043F480731360FFF725FE386108E0FFF729
:100AA00021FE02463B69D31A022B01D9032355E2EA
:100AB000654B1B6803F48063002BF0D0624B5B68CE
:100AC00023F0F8527B681B691B065F4913434B6098
:100AD00018E05D4B1B685C4A23F480731360FFF7DA
:100AE00001FE386108E0FFF7FDFD02463B69D31ABD
:100AF000022B01D9032331E2534B1B6803F48063BB
:100B0000002BF0D17B681B6803F00803002B3CD05E
:100B10007B685B69002B1CD04B4BD3F894304A4A5E
:100B200043F00103C2F89430FFF7DCFD386108E0C0
:100B3000FFF7D8FD02463B69D31A022B01D90323E4
:100B40000CE2414BD3F8943003F00203002BEFD0BA
:100B50001BE03D4BD3F894303B4A23F00103C2F82D
:100B60009430FFF7BFFD386108E0FFF7BBFD024698
:100B70003B69D31A022B01D90323EFE1324BD3F89F
:100B8000943003F00203002BEFD17B681B6803F065
:100B90000403002B00F0A6800023FB772A4B9B6DFB
:100BA00003F08053002B0DD1274B9B6D264A43F059
:100BB00080539365244B9B6D03F08053BB60BB68EF
:100BC0000123FB77214B1B6803F48073002B18D1A2
:100BD0001E4B1B681D4A43F480731360FFF782FDB0
:100BE000386108E0FFF77EFD02463B69D31A022B0D
:100BF00001D90323B2E1154B1B6803F48073002B6A
:100C0000F0D07B689B68012B08D10F4BD3F8903054
:100C10000D4A43F00103C2F8903029E07B689B68DD
:100C2000052B15D1084BD3F89030074A43F0040345
:100C3000C2F89030044BD3F89030034A43F00103DC
:100C4000C2F8903014E000BF001002400070004075
:100C50009A4BD3F89030994A23F00103C2F89030B0
:100C6000964BD3F89030954A23F00403C2F89030A5
:100C70007B689B68002B16D0FFF734FD38610AE0D3
:100C8000FFF730FD02463B69D31A41F288329342A6
:100C900001D9032362E1894BD3F8903003F00203BA
:100CA000002BEDD015E0FFF71DFD38610AE0FFF7DE
:100CB00019FD02463B69D31A41F28832934201D9A9
:100CC00003234BE17D4BD3F8903003F00203002B5C
:100CD000EDD1FB7F012B05D1784B9B6D774A23F03B
:100CE000805393657B681B6803F02003002B3CD086
:100CF0007B685B6A002B1CD0704BD3F898306F4A2E
:100D000043F00103C2F89830FFF7ECFC386108E0CB
:100D1000FFF7E8FC02463B69D31A022B01D90323F3
:100D20001CE1664BD3F8983003F00203002BEFD0A0
:100D30001BE0624BD3F89830604A23F00103C2F8FD
:100D40009830FFF7CFFC386108E0FFF7CBFC024694
:100D50003B69D31A022B01D90323FFE0574BD3F889
:100D6000983003F00203002BEFD17B689B6A002BC5
:100D700000F0F3807B689B6A022B40F0C9804F4BE8
:100D8000DB687B617B6903F003027B68DB6A9A4264
:100D90002CD17B6903F070027B681B6B013B1B014C
:100DA0009A4223D17B6903F4FE427B685B6B1B0292
:100DB0009A421BD17B6903F078427B689B6BDB0610
:100DC0009A4213D17B6903F4C0027B68DB6B5B083A
:100DD000013B5B059A4209D17B6903F0C0627B68E5
:100DE0001B6C5B08013B5B069A426BD0BB690C2B0A
:100DF00062D0324B1B6803F08063002B01D00123CB
:100E0000ACE02E4B1B682D4A23F080731360FFF774
:100E100069FC386108E0FFF765FC02463B69D31ABC
:100E2000022B01D9032399E0244B1B6803F00073C4
:100E3000002BF0D1214BDA68214B13407A68D16A3C
:100E40007A68126B013A120111437A68526B1202EE
:100E500011437A68D26B5208013A520511437A68FD
:100E6000126C5208013A520611437A68926BD2060C
:100E70000A4312491343CB60104B1B680F4A43F0DF
:100E8000807313600D4BDB680C4A43F08073D360B2
:100E9000FFF728FC386108E0FFF724FC02463B69B5
:100EA000D31A022B01D9032358E0044B1B6803F02B
:100EB0000073002BF0D050E001234FE000100240FF
:100EC0008C809D01274B1B6803F00073002B44D1DD
:100ED000244B1B68234A43F080731360214BDB686B
:100EE000204A43F08073D360FFF7FCFB386108E0D1
:100EF000FFF7F8FB02463B69D31A022B01D9032303
:100F00002CE0184B1B6803F00073002BF0D024E09A
:100F1000BB690C2B1FD0134B1B68124A23F0807344
:100F20001360FFF7DFFB386108E0FFF7DBFB0246E9
:100F30003B69D31A022B01D903230FE0094B1B682D
:100F400003F00073002BF0D1064BDA680549064B1D
:100F50001340CB6001E0012300E000231846203756
:100F6000BD4680BD00100240FCFFEEFE80B584B09F
:100F700000AF786039607B68002B01D10123E7E086
:100F8000754B1B6803F007033A689A4210D9724BFD
:100F90001B6823F0070270493B6813430B606E4BDC
:100FA0001B6803F007033A689A4201D00123CFE09F
:100FB0007B681B6803F00203002B10D07B689A68E3
:100FC000664B9B6803F0F0039A4208D9634B9B6819
:100FD00023F0F0027B689B68604913438B607B6859
:100FE0001B6803F00103002B4CD07B685B68032B6C
:100FF00007D15A4B1B6803F00073002B21D101234A
:10100000A6E07B685B68022B07D1544B1B6803F496
:101010000033002B15D101239AE07B685B68002B1D
:1010200007D14E4B1B6803F00203002B09D10123AB
:101030008EE04A4B1B6803F48063002B01D101232F
:1010400086E0464B9B6823F003027B685B6843495C
:1010500013438B60FFF746FBF8600AE0FFF742FBA3
:101060000246FB68D31A41F28832934201D9032326
:101070006EE03A4B9B6803F00C027B685B689B0058
:101080009A42EBD17B681B6803F00203002B10D05F
:101090007B689A68314B9B6803F0F0039A4208D250
:1010A0002E4B9B6823F0F0027B689B682B4913430F
:1010B0008B60294B1B6803F007033A689A4210D2F1
:1010C000254B1B6823F0070223493B6813430B6041
:1010D000214B1B6803F007033A689A4201D00123B1
:1010E00036E07B681B6803F00403002B08D01B4B21
:1010F0009B6823F4E0627B68DB68184913438B60CC
:101100007B681B6803F00803002B09D0134B9B6816
:1011100023F460527B681B69DB00104913438B602A
:1011200000F024F802460D4B9B681B0903F00F03E7
:101130000B49CB5C03F01F0322FA03F3094A136047
:10114000094B1B681846FFF74BFA0346FB72FB7A04
:1011500018461037BD4680BD0020024000100240F6
:10116000304E0008080000200000002080B489B044
:1011700000AF0023FB610023BB613E4B9B6803F083
:101180000C033B613B4BDB6803F00303FB603B69F3
:10119000002B05D03B690C2B21D1FB68012B1ED104
:1011A000344B1B6803F00803002B07D1314BD3F8F5
:1011B00094301B0A03F00F03FB6105E02D4B1B6805
:1011C0001B0903F00F03FB612B4AFB6952F8233024
:1011D000FB613B69002B0DD1FB69BB610AE03B69F8
:1011E000042B02D1254BBB6104E03B69082B01D1E4
:1011F000234BBB613B690C2B34D11E4BDB6803F0E6
:101200000303BB60BB68022B03D0BB68032B03D076
:1012100005E01A4B7B6105E0194B7B6102E0FB693D
:101220007B6100BF134BDB681B0903F0070301332D
:101230007B60104BDB681B0A03F07F037A6903FBBA
:1012400002F27B68B2FBF3F37B610A4BDB685B0E57
:1012500003F0030301335B003B607A693B68B2FB38
:10126000F3F3BB61BB6918462437BD465DF8047BC8
:10127000704700BF00100240484E00080024F400F0
:1012800000127A0080B400AF034B1B681846BD46BD
:101290005DF8047B704700BF0800002080B500AFF8
:1012A000FFF7F0FF0246064B9B681B0A03F007039B
:1012B0000449CB5C03F01F0322FA03F3184680BDF8
:1012C00000100240404E000880B500AFFFF7DAFF83
:1012D0000246064B9B68DB0A03F007030449CB5C1C
:1012E00003F01F0322FA03F3184680BD00100240EA
:1012F000404E000880B483B000AF786039607B68EE
:101300000F221A60124B9B6803F003027B685A603D
:101310000F4B9B6803F0F0027B689A600C4B9B6854
:1013200003F4E0627B68DA60094B9B68DB0803F436
:10133000E0627B681A61074B1B6803F007023B6899
:101340001A6000BF0C37BD465DF8047B704700BFD4
:10135000001002400020024080B586B000AF7860E7
:1013600000233B612A4B9B6D03F08053002B03D07D
:1013700000F012FD786114E0254B9B6D244A43F088
:1013800080539365224B9B6D03F08053FB60FB6899
:1013900000F002FD78611E4B9B6D1D4A23F08053C7
:1013A00093657B69B3F5007F0BD17B68802B19D9DE
:1013B0007B68A02B02D902233B6113E001233B6130
:1013C00010E07B68802B02D903233B610AE07B6835
:1013D000802B02D102233B6104E07B68702B01D19A
:1013E00001233B610B4B1B6823F0070209493B6952
:1013F00013430B60074B1B6803F007033A699A42DB
:1014000001D0012300E0002318461837BD4680BDF7
:10141000001002400020024080B586B000AF786026
:101420000023FB740023BB747B681B6803F4006318
:10143000002B31D07B685B6CB3F5400F1AD0B3F54D
:10144000400F14D8002B09D0B3F5000F0FD15D4B1E
:10145000DB685C4A43F48033D3600CE07B68043380
:101460000021184600F0F0F90346FB7403E0012365
:10147000FB7400E000BFFB7C002B0BD1514BD3F879
:10148000883023F440027B685B6C4E491343C1F8FB
:10149000883001E0FB7CBB747B681B6803F400337D
:1014A000002B00F09E8000237B74464B9B6D03F065
:1014B0008053002B01D1012300E00023002B0DD02D
:1014C000404B9B6D3F4A43F0805393653D4B9B6D72
:1014D00003F08053BB60BB6801237B743A4B1B68ED
:1014E000394A43F480731360FFF7FCF8F86009E0B1
:1014F000FFF7F8F80246FB68D31A022B02D9032340
:10150000FB7405E0304B1B6803F48073002BEFD0B5
:10151000FB7C002B5AD12B4BD3F8903003F4407353
:101520007B617B69002B1ED07B689B6D7A699A4238
:1015300019D0244BD3F8903023F440737B61214BB6
:10154000D3F890301F4A43F48033C2F890301D4BDB
:10155000D3F890301B4A23F48033C2F89030194AF4
:101560007B69C2F890307B6903F00103002B16D031
:10157000FFF7B8F8F8600BE0FFF7B4F80246FB6835
:10158000D31A41F28832934202D90323FB7406E056
:101590000C4BD3F8903003F00203002BECD0FB7C13
:1015A000002B0BD1074BD3F8903023F440727B68AB
:1015B0009B6D04491343C1F8903009E0FB7CBB7478
:1015C00006E000BF0010024000700040FB7CBB74CE
:1015D0007B7C012B05D19B4B9B6D9A4A23F080535A
:1015E00093657B681B6803F00103002B0AD0954BC1
:1015F000D3F8883023F003027B681B6A91491343B8
:10160000C1F888307B681B6803F00203002B0AD006
:101610008C4BD3F8883023F00C027B685B6A8949D5
:101620001343C1F888307B681B6803F00403002B68
:101630000AD0844BD3F8883023F030027B689B6A51
:1016400080491343C1F888307B681B6803F020038E
:10165000002B0AD07B4BD3F8883023F440627B68A0
:10166000DB6A78491343C1F888307B681B6803F450
:101670000073002B0AD0734BD3F8883023F4402238
:101680007B68DB6B6F491343C1F888307B681B684C
:1016900003F48063002B0AD06A4BD3F8883023F41C
:1016A00040127B681B6C67491343C1F888307B6824
:1016B0001B6803F04003002B0AD0624BD3F888303C
:1016C00023F440527B681B6B5E491343C1F888309A
:1016D0007B681B6803F08003002B0AD0594BD3F8BA
:1016E000883023F440427B685B6B56491343C1F852
:1016F00088307B681B6803F48073002B0AD0514B41
:10170000D3F8883023F440327B689B6B4D491343F8
:10171000C1F888307B681B6803F40023002B28D0B5
:10172000484BD3F8883023F040627B689B6C454976
:101730001343C1F888307B689B6CB3F1006F06D10E
:10174000404BDB683F4A43F48013D36011E07B6871
:101750009B6CB3F1806F0CD17B6804330121184678
:1017600000F072F80346FB74FB7C002B01D0FB7C7D
:10177000BB747B681B6803F48023002B28D0314B9B
:10178000D3F8883023F040627B68DB6C2D4913432B
:10179000C1F888307B68DB6CB3F1006F06D1294B50
:1017A000DB68284A43F48013D36011E07B68DB6C6C
:1017B000B3F1806F0CD17B6804330121184600F02F
:1017C00043F80346FB74FB7C002B01D0FB7CBB740D
:1017D0007B681B6803F48043002B1CD0194BD3F8A3
:1017E000883023F040527B681B6D16491343C1F8C3
:1017F00088307B681B6DB3F1805F0CD17B6804334C
:101800000221184600F020F80346FB74FB7C002BF5
:1018100001D0FB7CBB747B681B6803F40043002B86
:101820000AD0084BD3F8883023F080427B685B6D88
:1018300004491343C1F88830BB7C18461837BD46AD
:1018400080BD00BF0010024080B584B000AF78605A
:1018500039600023FB73744BDB6803F00303002B38
:1018600018D0714BDB6803F003027B681B689A4257
:101870000DD17B681B68002B09D06B4BDB681B0903
:1018800003F007035A1C7B685B689A4247D0012328
:10189000FB7344E07B681B68032B18D0032B25D80F
:1018A000012B02D0022B09D020E05F4B1B6803F014
:1018B0000203002B1DD10123FB731AE05A4B1B6856
:1018C00003F48063002B16D10123FB7313E0564B06
:1018D0001B6803F40033002B0FD1534B1B6803F438
:1018E0008023002B09D10123FB7306E00123FB7346
:1018F00004E000BF02E000BF00E000BFFB7B002B64
:101900000DD1494BDB6823F073027B6819687B6853
:101910005B68013B1B010B4343491343CB60FB7BDB
:10192000002B7CD1404B1B683F4A23F0806313603F
:10193000FEF7D8FEB86009E0FEF7D4FE0246BB68A9
:10194000D31A022B02D90323FB7305E0364B1B6825
:1019500003F00063002BEFD1FB7B002B5FD13B68D2
:10196000002B10D1304B1B6923F0784323F4FE4346
:101970007A68926811027A68D268D2060A432A49C4
:1019800013430B6127E03B68012B12D1264B1B69E7
:1019900023F4C00323F4FE437A68926811027A6844
:1019A00012695208013A52050A431F4913430B6159
:1019B00011E01D4B1B6923F0C06323F4FE437A68DA
:1019C000926811027A6852695208013A52060A4333
:1019D000154913430B61144B1B68134A43F0806392
:1019E0001360FEF77FFEB86009E0FEF77BFE02465B
:1019F000BB68D31A022B02D90323FB7305E00A4B01
:101A00001B6803F00063002BEFD0FB7B002B06D19B
:101A1000054B1A697B689B69034913430B61FB7B88
:101A200018461037BD4680BD0010024080B487B014
:101A300000AF7860396000237B6154E13B681A682D
:101A400001217B6901FA03F31340FB60FB68002B63
:101A500000F046813B685B6803F00303012B05D06F
:101A60003B685B6803F00303022B30D17B689B6803
:101A70003B617B695B00032202FA03F3DB433A69B3
:101A800013403B613B68DA687B695B0002FA03F351
:101A90003A6913433B617B683A699A607B685B688B
:101AA0003B6101227B6902FA03F3DB433A6913408D
:101AB0003B613B685B681B0903F001027B6902FA2A
:101AC00003F33A6913433B617B683A695A603B68A8
:101AD0005B6803F00303032B17D07B68DB683B6173
:101AE0007B695B00032202FA03F3DB433A6913408C
:101AF0003B613B689A687B695B0002FA03F33A69D1
:101B000013433B617B683A69DA603B685B6803F0CA
:101B10000303022B23D17B69DA087B68083253F870
:101B200022303B617B6903F007039B000F2202FA1E
:101B300003F3DB433A6913403B613B681A697B69F5
:101B400003F007039B0002FA03F33A6913433B6176
:101B50007B69DA087B680832396943F822107B68B0
:101B60001B683B617B695B00032202FA03F3DB43E2
:101B70003A6913403B613B685B6803F003027B6991
:101B80005B0002FA03F33A6913433B617B683A69ED
:101B90001A603B685B6803F44033002B00F0A080C0
:101BA000584B1B6E574A43F001031366554B1B6E8F
:101BB00003F00103BB60BB68534A7B699B08023397
:101BC00052F823303B617B6903F003039B000F2233
:101BD00002FA03F3DB433A6913403B617B68B3F1DC
:101BE000904F19D07B68494A934213D07B68484A8A
:101BF00093420DD07B68474A934207D07B68464AA0
:101C0000934201D1042308E0072306E0032304E004
:101C1000022302E0012300E000237A6902F00302BC
:101C2000920093403A6913433B6137497B699B08B3
:101C300002333A6941F82320384B9B683B61FB68CB
:101C4000DB433A6913403B613B685B6803F48013F4
:101C5000002B03D03A69FB6813433B612F4A3B6971
:101C600093602E4BDB683B61FB68DB433A691340B2
:101C70003B613B685B6803F40013002B03D03A69B7
:101C8000FB6813433B61254A3B69D360234B5B6888
:101C90003B61FB68DB433A6913403B613B685B682F
:101CA00003F40033002B03D03A69FB6813433B6114
:101CB0001A4A3B695360194B1B683B61FB68DB4365
:101CC0003A6913403B613B685B6803F48033002B47
:101CD00003D03A69FB6813433B61104A3B691360C8
:101CE0007B6901337B613B681A687B6922FA03F3E5
:101CF000002B7FF4A3AE00BF00BF1C37BD465DF8CC
:101D0000047B7047001002400000014000040048BE
:101D100000080048000C0048001000480004014082
:101D200080B485B000AF78600B467B807B681A6911
:101D30007B881340002B02D00123FB7301E00023BA
:101D4000FB73FB7B18461437BD465DF8047B704778
:101D500080B582B000AF0346FB80084B5A69FB8810
:101D60001340002B06D0054AFB885361FB881846B8
:101D700000F006F800BF0837BD4680BD00040140F2
:101D800080B483B000AF0346FB8000BF0C37BD4674
:101D90005DF8047B7047000080B400AF044B1B6803
:101DA00003F4C0631846BD465DF8047B704700BF6E
:101DB0000070004080B485B000AF78607B68B3F5F8
:101DC000007F30D1234B1B6803F4C063B3F5007F61
:101DD00038D0204B1B6823F4C0631E4A43F40073C1
:101DE00013601D4B1B68322202FB03F31B4AA2FB4C
:101DF00003239B0C0133FB6002E0FB68013BFB60AB
:101E0000144B5B6903F48063B3F5806F02D1FB6808
:101E1000002BF2D10F4B5B6903F48063B3F5806F45
:101E200010D103230FE00B4B1B6803F4C063B3F521
:101E3000806F07D0074B1B6823F4C063054A43F447
:101E400080631360002318461437BD465DF8047B99
:101E5000704700BF007000400800002083DE1B4375
:101E600080B485B000AF78607B6803F00703FB6047
:101E70000C4BDB68BB60BA684FF6FF031340BB60D6
:101E8000FB681A02BB68134343F0BF6343F400339B
:101E9000BB60044ABB68D36000BF1437BD465DF821
:101EA000047B704700ED00E080B400AF044BDB68BA
:101EB0001B0A03F007031846BD465DF8047B704714
:101EC00000ED00E080B483B000AF0346FB7197F9EA
:101ED0000730002B0BDBFB7903F01F02074997F952
:101EE00007305B09012000FA02F241F8232000BF0D
:101EF0000C37BD465DF8047B704700BF00E100E091
:101F000080B483B000AF03463960FB7197F90730A6
:101F1000002B0ADB3B68DAB20C4997F90730120153
:101F2000D2B20B4483F800230AE03B68DAB20849D6
:101F3000FB7903F00F03043B1201D2B20B441A7673
:101F400000BF0C37BD465DF8047B704700E100E040
:101F500000ED00E080B489B000AFF860B9607A604D
:101F6000FB6803F00703FB61FB69C3F10703042B64
:101F700028BF0423BB61FB690433062B02D9FB692C
:101F8000033B00E000237B614FF0FF32BB6902FAA4
:101F900003F3DA43BB681A407B699A404FF0FF3184
:101FA0007B6901FA03F3D9437B680B40134318465E
:101FB0002437BD465DF8047B704780B582B000AF22
:101FC00078607868FFF74CFF00BF0837BD4680BDDA
:101FD00080B586B000AF0346B9607A60FB7300231A
:101FE0007B61FFF761FF78617A68B9687869FFF70C
:101FF000B1FF024697F90F3011461846FFF780FFF0
:1020000000BF1837BD4680BD80B582B000AF034623
:10201000FB7197F907301846FFF754FF00BF0837E8
:10202000BD4680BD80B582B000AF78607B68002B74
:1020300001D1012349E07B6893F83D30DBB2002BEE
:1020400006D17B68002283F83C20786800F041F8D4
:102050007B68022283F83D207B681A687B68043322
:102060001946104600F0DCF97B68012283F848200D
:102070007B68012283F83E207B68012283F83F20A1
:102080007B68012283F840207B68012283F841208D
:102090007B68012283F842207B68012283F8432079
:1020A0007B68012283F844207B68012283F8452065
:1020B0007B68012283F846207B68012283F8472051
:1020C0007B68012283F83D20002318460837BD466F
:1020D00080BD80B483B000AF786000BF0C37BD46D0
:1020E0005DF8047B7047000080B485B000AF786075
:1020F0007B6893F83D30DBB2012B01D001233BE03C
:102100007B68022283F83D207B681B68DA687B6865
:102110001B6842F00102DA607B681B68194A93422F
:1021200009D07B681B68B3F1804F04D07B681B68C3
:10213000154A934215D17B681B689A68134B13406C
:10214000FB60FB68062B15D0FB68B3F5803F11D010
:102150007B681B681A687B681B6842F001021A6082
:1021600008E07B681B681A687B681B6842F0010204
:102170001A6000E000BF002318461437BD465DF822
:10218000047B7047002C0140004001400700010023
:1021900080B582B000AF78607B681B681B6903F074
:1021A0000203022B22D17B681B68DB6803F0020369
:1021B000022B1BD17B681B686FF002021A617B68DF
:1021C00001221A777B681B689B6903F00303002BCD
:1021D00003D0786800F005F905E0786800F0F7F8BA
:1021E000786800F008F97B6800221A777B681B6822
:1021F0001B6903F00403042B22D17B681B68DB6896
:1022000003F00403042B1BD17B681B686FF00402EE
:102210001A617B6802221A777B681B689B6903F44A
:102220004073002B03D0786800F0DBF805E0786895
:1022300000F0CDF8786800F0DEF87B6800221A77AD
:102240007B681B681B6903F00803082B22D17B689D
:102250001B68DB6803F00803082B1BD17B681B6835
:102260006FF008021A617B6804221A777B681B688A
:10227000DB6903F00303002B03D0786800F0B1F8AA
:1022800005E0786800F0A3F8786800F0B4F87B689F
:1022900000221A777B681B681B6903F01003102B60
:1022A00022D17B681B68DB6803F01003102B1BD165
:1022B0007B681B686FF010021A617B6808221A772E
:1022C0007B681B68DB6903F44073002B03D07868DC
:1022D00000F087F805E0786800F079F8786800F099
:1022E0008AF87B6800221A777B681B681B6903F0F9
:1022F0000103012B0ED17B681B68DB6803F001032F
:10230000012B07D17B681B686FF001021A617868A6
:10231000FEF7A6F87B681B681B6903F08003802B1F
:102320000ED17B681B68DB6803F08003802B07D12C
:102330007B681B686FF080021A61786800F0DEF835
:102340007B681B681B6903F48073B3F5807F0ED133
:102350007B681B68DB6803F08003802B07D17B68F8
:102360001B686FF480721A61786800F0D1F87B689E
:102370001B681B6903F04003402B0ED17B681B6870
:10238000DB6803F04003402B07D17B681B686FF0CC
:1023900040021A61786800F038F87B681B681B6996
:1023A00003F02003202B0ED17B681B68DB6803F051
:1023B0002003202B07D17B681B686FF020021A6175
:1023C000786800F091F800BF0837BD4680BD80B442
:1023D00083B000AF786000BF0C37BD465DF8047B6A
:1023E000704780B483B000AF786000BF0C37BD4643
:1023F0005DF8047B704780B483B000AF786000BFA5
:102400000C37BD465DF8047B704780B483B000AFE5
:10241000786000BF0C37BD465DF8047B7047000054
:1024200080B485B000AF786039607B681B68FB6062
:102430007B682A4A934203D07B68B3F1804F08D16E
:10244000FB6823F07003FB603B685B68FA6813432A
:10245000FB607B68214A93420BD07B68B3F1804FCD
:1024600007D07B681E4A934203D07B681D4A934283
:1024700008D1FB6823F44073FB603B68DB68FA68B3
:102480001343FB60FB6823F080023B685B691343E6
:10249000FB607B68FA681A603B689A687B68DA625E
:1024A0003B681A687B689A627B680C4A934207D043
:1024B0007B680B4A934203D07B680A4A934203D15C
:1024C0003B681A697B681A637B6801225A6100BF06
:1024D0001437BD465DF8047B704700BF002C0140F7
:1024E000004001400044014080B483B000AF7860F8
:1024F00000BF0C37BD465DF8047B704780B483B0E5
:1025000000AF786000BF0C37BD465DF8047B7047B4
:1025100080B483B000AF786000BF0C37BD465DF873
:10252000047B704780B582B000AF78607B68002B79
:1025300001D1012340E07B689B6F002B06D17B68B3
:10254000002283F874207868FDF7F2FF7B6824226C
:102550009A677B681B681A687B681B6822F0010217
:102560001A60786800F02CF80346012B01D1012392
:1025700022E07B685B6A002B02D0786800F07AFA70
:102580007B681B685A687B681B6822F490425A601B
:102590007B681B689A687B681B6822F02A029A6035
:1025A0007B681B681A687B681B6842F001021A602E
:1025B000786800F001FB034618460837BD4680BD29
:1025C0002DE9B04F8AB000AFF860002387F82230C1
:1025D000FB689A68FB681B691A43FB685B691A43CE
:1025E000FB68DB6913437B62FB681B681A689E4BC0
:1025F0001340FA681268796A0B431360FB681B6822
:102600005B6823F44051FB68DA68FB681B680A4387
:102610005A60FB689B697B62FB681B68934A934224
:1026200004D0FB681B6A7A6A13437B62FB681B68F1
:102630009B6823F43061FB681B687A6A0A439A60DE
:10264000FB681B688A4A934226D18A4BD3F88830AC
:1026500003F00303032B1BD801A252F823F000BFA1
:1026600071260008812600087926000889260008BE
:10267000012387F82330ABE0022387F82330A7E05B
:10268000042387F82330A3E0082387F823309FE052
:10269000102387F823309BE0FB681B68764A93423F
:1026A00038D1744BD3F8883003F00C030C2B2DD8A1
:1026B00001A252F823F000BFED2600080D27000804
:1026C0000D2700080D270008FD2600080D2700082B
:1026D0000D2700080D270008F52600080D27000823
:1026E0000D2700080D27000805270008002387F89C
:1026F00023306DE0022387F8233069E0042387F854
:10270000233065E0082387F8233061E0102387F841
:1027100023305DE0FB681B68584A934225D1554B36
:10272000D3F8883003F03003302B16D0302B18D874
:10273000202B0AD0202B14D8002B02D0102B08D02D
:102740000FE0002387F8233042E0022387F823308C
:102750003EE0042387F823303AE0082387F823304B
:1027600036E0102387F8233032E0FB681B683F4ACD
:1027700093422AD13F4BD3F8883003F44063B3F53A
:10278000406F1AD0B3F5406F1BD8B3F5006F0CD073
:10279000B3F5006F15D8002B03D0B3F5806F08D0C8
:1027A0000FE0002387F8233012E0022387F823305C
:1027B0000EE0042387F823300AE0082387F823304B
:1027C00006E0102387F8233002E0102387F8233037
:1027D000FB681B68254A934240F08A8097F82330B3
:1027E000082B24D801A252F823F000BF11280008BA
:1027F0002F280008192800082F2800081F28000883
:102800002F2800082F2800082F2800082728000854
:10281000FEF744FDF86110E0194BFB610DE0FEF797
:10282000A5FCF86109E04FF40043FB6105E00023DB
:10283000FB61012387F8223000BFFB69002B00F009
:102840000981FB685A6813465B001344FA699A428F
:1028500005D3FB685B681B03FA699A4212D901230E
:1028600087F82230F6E000BFF369FFEF00800040F8
:102870000038014000100240004400400048004081
:102880000024F400FB6900221C4615464FF00002AC
:102890004FF000032B0243EA14632202F9684968EF
:1028A000490800208846814612EB080A43EB090BD1
:1028B000FB685B6800223B607A60D7E900235046E2
:1028C0005946FDF765FC02460B461346BB61BB69E2
:1028D000B3F5407F08D3BB69B3F5801F04D2FB6812
:1028E0001B68BA69DA60B5E0012387F82230B1E0ED
:1028F000FB68DB69B3F5004F5DD197F82330082BF7
:1029000027D801A252F823F02D2900083529000804
:102910003D290008532900084329000853290008CD
:1029200053290008532900084B290008FEF7B6FC7C
:10293000F86114E0FEF7C8FCF86110E04C4BFB6155
:102940000DE0FEF713FCF86109E04FF40043FB6172
:1029500005E00023FB61012387F8223000BFFB69FB
:10296000002B77D0FB695A00FB685B685B081A4450
:10297000FB685B68B2FBF3F3BB61BB690F2B16D935
:10298000BB69B3F5803F12D2BB699BB223F00F0342
:10299000FB82BB695B089BB203F007039AB2FB8A18
:1029A0001343FB82FB681B68FA8ADA6052E001235A
:1029B00087F822304EE097F82330082B27D801A261
:1029C00052F823F0E9290008F1290008F929000844
:1029D0000F2A0008FF2900080F2A00080F2A000804
:1029E0000F2A0008072A0008FEF758FCF86114E0D7
:1029F000FEF76AFCF86110E01D4BFB610DE0FEF78D
:102A0000B5FBF86109E04FF40043FB6105E00023EA
:102A1000FB61012387F8223000BFFB69002B19D02E
:102A2000FB685B685A08FB691A44FB685B68B2FB89
:102A3000F3F3BB61BB690F2B09D9BB69B3F5803FC9
:102A400005D2BB699AB2FB681B68DA6002E0012319
:102A500087F82230FB6800225A66FB6800229A66DB
:102A600097F8223018462837BD46BDE8B08F00BF22
:102A70000024F40080B483B000AF78607B685B6AA8
:102A800003F00103002B0AD07B681B685B6823F40A
:102A900000317B689A6A7B681B680A435A607B68CE
:102AA0005B6A03F00203002B0AD07B681B685B683B
:102AB00023F480317B68DA6A7B681B680A435A60BA
:102AC0007B685B6A03F00403002B0AD07B681B68F9
:102AD0005B6823F480217B681A6B7B681B680A4360
:102AE0005A607B685B6A03F00803002B0AD07B689E
:102AF0001B685B6823F400417B685A6B7B681B682A
:102B00000A435A607B685B6A03F01003002B0AD00B
:102B10007B681B689B6823F480517B689A6B7B6899
:102B20001B680A439A607B685B6A03F02003002BF2
:102B30000AD07B681B689B6823F400517B68DA6BC2
:102B40007B681B680A439A607B685B6A03F04003FA
:102B5000002B1AD07B681B685B6823F480117B68AC
:102B60001A6C7B681B680A435A607B681B6CB3F560
:102B7000801F0AD17B681B685B6823F4C0017B68F7
:102B80005A6C7B681B680A435A607B685B6A03F077
:102B90008003002B0AD07B681B685B6823F400214C
:102BA0007B689A6C7B681B680A435A6000BF0C37CD
:102BB000BD465DF8047B704780B586B002AF786093
:102BC0007B680022C3F88020FDF78CFDF8607B68ED
:102BD0001B681B6803F00803082B0ED16FF07E43BF
:102BE0000093FB6800224FF40011786800F02DF884
:102BF0000346002B01D0032323E07B681B681B687E
:102C000003F00403042B0ED16FF07E430093FB68A6
:102C100000224FF48001786800F017F80346002B7B
:102C200001D003230DE07B6820229A677B68202275
:102C3000DA677B6800221A667B68002283F87420BA
:102C4000002318461037BD4680BD80B59CB000AF4C
:102C5000F860B9603B601346FB71A5E0BB6FB3F150
:102C6000FF3F00F0A180FDF73DFD02463B68D31A0F
:102C7000BA6F9A4202D3BB6F002B3ED1FB681B6830
:102C80003B653B6D53E8003FFB64FB6C23F4D07362
:102C90007B66FB681B681A467B6EFB65BA65B96D7F
:102CA000FA6D41E800237B657B6D002BE6D1FB6864
:102CB0001B680833FB63FB6B53E8003FBB63BB6BD4
:102CC00023F001033B66FB681B6808333A6EBA6465
:102CD0007B64796CBA6C41E800233B643B6C002B4D
:102CE000E5D1FB6820229A67FB682022DA67FB683F
:102CF000002283F87420032367E0FB681B681B68CD
:102D000003F00403002B4FD0FB681B68DB6903F45E
:102D10000063B3F5006F47D1FB681B684FF4006296
:102D20001A62FB681B68BB62BB6A53E8003F7B62A8
:102D30007B6A23F4D073FB66FB681B681A46FB6E44
:102D40007B633A63396B7A6B41E80023FB62FB6A71
:102D5000002BE6D1FB681B6808337B617B6953E875
:102D6000003F3B613B6923F00103BB66FB681B68C6
:102D70000833BA6E3A62FB61F9693A6A41E80023A6
:102D8000BB61BB69002BE5D1FB6820229A67FB6819
:102D90002022DA67FB682022C3F88020FB6800222B
:102DA00083F87420032310E0FB681B68DA69BB68B2
:102DB0001340BA689A420CBF01230023DBB21A46C3
:102DC000FB799A423FF44AAF002318467037BD465C
:102DD00080BD000080B400AF064BD3F88830054AB0
:102DE00043F47003C2F8883000BFBD465DF8047B31
:102DF000704700BF00ED00E080B483B000AF7860A2
:102E00007B6803F108027B685A607B684FF0FF32F1
:102E10009A607B6803F108027B68DA607B6803F1E3
:102E200008027B681A617B6800221A6000BF0C37B9
:102E3000BD465DF8047B704780B483B000AF786016
:102E40007B6800221A6100BF0C37BD465DF8047B29
:102E5000704780B485B000AF786039607B685B688C
:102E6000FB603B68FA685A60FB689A683B689A6046
:102E7000FB689B683A685A60FB683A689A603B68EE
:102E80007A681A617B681B685A1C7B681A6000BFED
:102E90001437BD465DF8047B704780B485B000AF41
:102EA000786039603B681B68BB60BB68B3F1FF3F6B
:102EB00003D17B681B69FB600CE07B680833FB6017
:102EC00002E0FB685B68FB60FB685B681B68BA68D4
:102ED0009A42F6D2FB685A683B685A603B685B6866
:102EE0003A689A603B68FA689A60FB683A685A6088
:102EF0003B687A681A617B681B685A1C7B681A6099
:102F000000BF1437BD465DF8047B704780B485B0C0
:102F100000AF78607B681B69FB607B685B687A68E0
:102F200092689A607B689B687A6852685A60FB680E
:102F30005B687A689A4203D17B689A68FB685A603A
:102F40007B6800221A61FB681B685A1EFB681A60C6
:102F5000FB681B6818461437BD465DF8047B704754
:102F600080B58EB004AFF860B9607A603B607B6B6F
:102F7000002B0AD14FF0500383F31188BFF36F8FFA
:102F8000BFF34F8F3B6200BFFEE7BB6B002B0AD144
:102F90004FF0500383F31188BFF36F8FBFF34F8F50
:102FA000FB6100BFFEE75C233B613B695C2B0AD001
:102FB0004FF0500383F31188BFF36F8FBFF34F8F30
:102FC000BB6100BFFEE73B69BB6B002B1ED07B6B78
:102FD000002B1BD0BB6B7B627B6A7A6B1A637B6AAC
:102FE000022283F85920002303937B6A029307F19E
:102FF000140301933B6B00933B687A68B968F868E7
:1030000000F050F8786A00F0DDF801E000237B6101
:103010007B6918462837BD4680BD80B58CB004AFAB
:10302000F860B9603B601346FB80FB889B00184644
:1030300000F0E4FC78617B69002B0ED05C2000F08E
:10304000DDFCF861FB69002B03D0FB697A691A6328
:1030500005E0786900F09EFD01E00023FB61FB695B
:10306000002B17D0FB69002283F85920FA8800232F
:103070000393FB690293FB6A0193BB6A00933B686D
:10308000B968F86800F00EF8F86900F09BF80123C1
:10309000BB6102E04FF0FF33BB61BB6918462037CC
:1030A000BD4680BD80B588B000AFF860B9607A6079
:1030B0003B603B6B186B7B689B001A46A52101F0B7
:1030C0000BFD3B6B1A6B7B6803F18043013B9B005C
:1030D0001344BB61BB6923F00703BB61BB6903F009
:1030E0000703002B0AD04FF0500383F31188BFF37E
:1030F0006F8FBFF34F8F7B6100BFFEE7BB68002B74
:103100001FD00023FB6112E0BA68FB6913441978F1
:103110003A6BFB69134434330A461A70BA68FB6988
:1031200013441B78002B06D0FB690133FB61FB695C
:103130000F2BE9D900E000BF3B6B002283F843204E
:1031400003E03B6B002283F83420BB6A372B01D9A4
:103150003723BB623B6BBA6ADA623B6BBA6ADA64EA
:103160003B6B00221A653B6B04331846FFF764FE85
:103170003B6B18331846FFF75FFE3B6B3A6B1A61E7
:10318000BB6AC3F138023B6B9A613B6B3A6B5A6284
:103190003B6B00225A653B6B002283F858203A684B
:1031A000F968B86900F014FE02463B6B1A60FB6ACE
:1031B000002B02D0FB6A3A6B1A6000BF2037BD4675
:1031C00080BD000080B582B000AF786000F074FE72
:1031D0002D4B1B6801332C4A13602C4B1B68002BB2
:1031E00009D12A4A7B681360274B1B68012B10D139
:1031F00000F050FA0DE0264B1B68002B09D1234B41
:103200001B68DA6A7B68DB6A9A4202D81F4A7B68CD
:103210001360204B1B6801331E4A13601D4B1A6854
:103220007B685A647B68DA6A1B4B1B689A4203D935
:103230007B68DB6A184A13607B68DA6A13469B0076
:1032400013449B00154A1A447B6804331946104600
:10325000FFF7FFFD00F060FE0D4B1B68002B0ED04A
:103260000A4B1B68DA6A7B68DB6A9A4207D20C4B0E
:103270004FF080521A60BFF34F8FBFF36F8F00BFC4
:103280000837BD4680BD00BFD405002004010020E2
:10329000E0050020F0050020DC05002008010020EA
:1032A00004ED00E080B584B000AF78600023FB60DF
:1032B0007B68002B17D0134B1B68002B0AD04FF0F4
:1032C000500383F31188BFF36F8FBFF34F8FBB6041
:1032D00000BFFEE700F01AF80021786800F058FA05
:1032E00000F022F8F860FB68002B07D1064B4FF086
:1032F00080521A60BFF34F8FBFF36F8F00BF10373C
:10330000BD4680BDF805002004ED00E080B400AFAC
:10331000044B1B680133034A136000BFBD465DF8D0
:10332000047B7047F805002080B584B000AF00230F
:10333000FB600023BB60424B1B68002B0AD14FF09F
:10334000500383F31188BFF36F8FBFF34F8F3B6040
:1033500000BFFEE700F0B0FD394B1B68013B384A67
:103360001360374B1B68002B62D1364B1B68002B58
:103370005ED02FE0344BDB68DB68FB60FB68183302
:103380001846FFF7C3FDFB6804331846FFF7BEFD80
:10339000FB68DA6A2D4B1B689A4203D9FB68DB6A2B
:1033A0002A4A1360FB68DA6A13469B0013449B00A9
:1033B000274A1A44FB68043319461046FFF749FDB3
:1033C000FB68DA6A234B1B68DB6A9A4202D3224B02
:1033D00001221A601C4B1B68002BCBD1FB68002B11
:1033E00001D000F097F91D4B1B687B607B68002BB8
:1033F00010D000F037F80346002B02D0164B012204
:103400001A607B68013B7B607B68002BF1D1134B1A
:1034100000221A60104B1B68002B09D00123BB60EF
:103420000F4B4FF080521A60BFF34F8FBFF36F8F77
:1034300000F072FDBB6818461037BD4680BD00BF66
:10344000F8050020D405002098050020DC050020A8
:103450000801002004010020E8050020E405002008
:1034600004ED00E080B586B000AF00237B614F4BD8
:103470001B68002B40F08F804D4B1B6801333B6174
:103480004B4A3B6913603B69002B20D1494B1B68B9
:103490001B68002B0AD04FF0500383F31188BFF351
:1034A0006F8FBFF34F8F3B6000BFFEE7414B1B6840
:1034B000FB60414B1B683F4A13603F4AFB68136047
:1034C0003E4B1B6801333D4A136000F023F93C4B2F
:1034D0001B683A699A4249D3364B1B681B68002B1C
:1034E00004D1374B4FF0FF321A603FE0314B1B687D
:1034F000DB68DB68BB60BB685B687B603A697B68E4
:103500009A4203D22E4A7B6813602FE0BB680433D3
:103510001846FFF7FBFCBB689B6A002B04D0BB6816
:1035200018331846FFF7F2FCBB68DA6A254B1B68B4
:103530009A4203D9BB68DB6A224A1360BB68DA6A25
:1035400013469B0013449B001F4A1A44BB68043374
:1035500019461046FFF77DFCBB68DA6A1B4B1B68F7
:10356000DB6A9A42B8D301237B61B5E7174B1B682E
:10357000DA6A154913469B0013449B000B441B68F1
:10358000012B01D901237B61114B1B68002B07D054
:1035900001237B6104E00F4B1B6801330D4A13606C
:1035A0007B6918461837BD4680BD00BFF80500206E
:1035B000D80500209005002094050020EC0500208F
:1035C000F4050020DC050020080100200401002093
:1035D000E8050020E405002080B485B000AF284B4A
:1035E0001B68002B03D0274B01221A6041E0254BBA
:1035F00000221A60244B1B68FB6010E0FB68002B64
:103600000AD14FF0500383F31188BFF36F8FBFF3DC
:103610004F8F7B6000BFFEE7FB68013BFB601B49EF
:10362000FA6813469B0013449B000B441B68002B55
:10363000E4D0FA6813469B0013449B00134A1344DA
:10364000BB60BB685B685A68BB685A60BB685A68F5
:10365000BB6808339A4204D1BB685B685A68BB6890
:103660005A60BB685B68DB68094A1360064AFB68FE
:10367000136000BF1437BD465DF8047B704700BF80
:10368000F8050020E8050020DC05002008010020E6
:103690000401002080B582B000AF00237B600CE005
:1036A0007A6813469B0013449B00124A1344184641
:1036B000FFF7A2FB7B6801337B607B68372BEFD978
:1036C0000D48FFF799FB0D48FFF796FB0C48FFF7F5
:1036D00093FB0C48FFF790FB0B48FFF78DFB0B4B60
:1036E000054A1A600A4B054A1A6000BF0837BD46F2
:1036F00080BD00BF08010020680500207C05002077
:1037000098050020AC050020C00500209005002091
:103710009405002080B483B000AF0C4B1B681B687D
:10372000002B04D10A4B4FF0FF321A6008E0074B20
:103730001B68DB68DB687B607B685B68044A13603E
:1037400000BF0C37BD465DF8047B70479005002034
:10375000F405002080B483B000AF0B4B1B68002B36
:1037600002D101237B6008E0084B1B68002B02D1CB
:1037700002237B6001E000237B607B6818460C37E6
:10378000BD465DF8047B7047E0050020F805002089
:1037900080B584B000AF78603960214B1B68FB6056
:1037A000204B1B6804331846FFF7B0FB7B68B3F16E
:1037B000FF3F0AD13B68002B07D01A4B1B6804332C
:1037C00019461948FFF745FB26E0FA687B68134461
:1037D000BB60144B1B68BA685A60BA68FB689A42AF
:1037E00009D2124B1A680F4B1B6804331946104656
:1037F000FFF753FB10E00E4B1A680A4B1B680433AB
:1038000019461046FFF749FB0A4B1B68BA689A42F3
:1038100002D2084ABB68136000BF1037BD4680BDA6
:10382000D805002004010020C005002094050020D8
:1038300090050020F405002080B500AF054B1B6803
:10384000FFF788FF0346012B01D000F0C5FB00BF46
:1038500080BD00BF10E000E080B483B000AFEFF3A4
:1038600005833B603B68002B03D06FF005037B6052
:103870000CE00A4B1B68002B05D1084B01221A6093
:1038800000237B6002E04FF0FF337B607B681846CB
:103890000C37BD465DF8047B704700BFFC05002077
:1038A00080B58EB004AFF860B9607A6000233B61E8
:1038B000EFF305837B617B69002B7ED1FB68002BD6
:1038C0007BD080233B621823FB6100237B624FF097
:1038D000FF33BB617B68002B45D07B681B68002BE6
:1038E00002D07B681B687B627B689B69002B02D0DF
:1038F0007B689B69FB61FB69002B08D0FB69382B57
:1039000005D87B685B6803F00103002B01D000231E
:1039100054E07B685B69002B03D07B685B699B0884
:103920003B627B689B68002B0ED07B68DB685B2B5F
:103930000AD97B681B69002B06D07B685B69002B6A
:1039400002D00123BB6110E07B689B68002B0CD187
:103950007B68DB68002B08D17B681B69002B04D1D6
:103960000023BB6101E00023BB61BB69012B10D1C7
:103970007B681B697A68926802920193FB690093E5
:10398000BB683A6A796AF868FFF7EAFA03463B616E
:1039900013E0BB69002B10D13B6A9AB207F1100308
:1039A0000193FB690093BB68796AF868FFF735FB00
:1039B0000346012B01D000233B613B6918462837A1
:1039C000BD4680BD80B584B000AF7860EFF305835D
:1039D000BB60BB68002B03D06FF00503FB6007E002
:1039E0000023FB607B68002B02D07868FFF75AFC4D
:1039F000FB6818461037BD4680BD000080B58AB010
:103A000000AF78600023FB61FFF780FC5B4B1B6815
:103A1000002B01D100F020F9594B1A687B68134044
:103A2000002B40F093807B68002B1DD008227B6820
:103A300013447B607B6803F00703002B14D07B6882
:103A400023F0070308337B607B6803F00703002B38
:103A50000AD04FF0500383F31188BFF36F8FBFF389
:103A60004F8F7B6100BFFEE77B68002B6ED0454B1C
:103A70001B687A689A4269D8434B3B62424B1B6889
:103A80007B6204E07B6A3B627B6A1B687B627B6AC9
:103A90005B687A689A4203D97B6A1B68002BF1D174
:103AA000364B1B687A6A9A4250D03B6A1B680822E0
:103AB0001344FB617B6A1A683B6A1A607B6A5A6826
:103AC0007B68D21A08235B009A421FD97A6A7B6806
:103AD0001344BB61BB6903F00703002B0AD04FF00E
:103AE000500383F31188BFF36F8FBFF34F8F3B6198
:103AF00000BFFEE77B6A5A687B68D21ABB695A60CE
:103B00007B6A7A685A60B86900F008F91D4B1A6838
:103B10007B6A5B68D31A1B4A13601A4B1A681B4BEB
:103B20001B689A4203D2174B1B68184A13607B6AC2
:103B30005A68134B1B681A437B6A5A607B6A0022DF
:103B40001A60134B1B680133114A1360FFF7ECFB3B
:103B5000FB6903F00703002B0AD04FF0500383F3F7
:103B60001188BFF36F8FBFF34F8FFB6000BFFEE77D
:103B7000FB6918462837BD4680BD00BFC011002034
:103B8000D4110020C4110020B8110020C811002059
:103B9000CC11002080B586B000AF78607B687B6177
:103BA0007B68002B4DD008235B427A6913447B610C
:103BB0007B693B613B695A68244B1B681340002BAF
:103BC0000AD14FF0500383F31188BFF36F8FBFF317
:103BD0004F8FFB6000BFFEE73B691B68002B0AD0DC
:103BE0004FF0500383F31188BFF36F8FBFF34F8FF4
:103BF000BB6000BFFEE73B695A68144B1B6813406B
:103C0000002B1ED03B691B68002B1AD13B695A68F8
:103C10000E4B1B68DB431A403B695A60FFF776FB8B
:103C20003B695A680A4B1B681344094A1360386998
:103C300000F074F8074B1B680133064A1360FFF766
:103C400073FB00BF1837BD4680BD00BFD4110020F4
:103C5000C4110020D011002080B485B000AF40F620
:103C6000B833BB60274BFB60FB6803F00703002BF6
:103C70000CD0FB680733FB60FB6823F00703FB6095
:103C8000BA68FB68D31A1F4A1344BB60FB687B60A9
:103C90001D4A7B6813601C4B00225A607B68BA681F
:103CA0001344FB600822FB689B1AFB60FB6823F04F
:103CB0000703FB60FB68154A1360144B1B68002266
:103CC0005A60124B1B6800221A607B683B603B689D
:103CD000FA68D21A3B685A600C4B1A683B681A6043
:103CE0003B685B680A4A13603B685B68094A13607B
:103CF000094B4FF000421A6000BF1437BD465DF813
:103D0000047B704700060020B8110020C01100207D
:103D1000C8110020C4110020D411002080B485B047
:103D200000AF7860284BFB6002E0FB681B68FB601B
:103D3000FB681B687A689A42F7D8FB68BB60FB682F
:103D40005B68BA6813447A689A4208D1FB685A687B
:103D50007B685B681A44FB685A60FB687B607B6821
:103D6000BB607B685B68BA681A44FB681B689A4250
:103D700018D1FB681A68154B1B689A420DD07B68F6
:103D80005A68FB681B685B681A447B685A60FB686A
:103D90001B681A687B681A6008E00C4B1A687B681D
:103DA0001A6003E0FB681A687B681A60FA687B682F
:103DB0009A4202D0FB687A681A6000BF1437BD4689
:103DC0005DF8047B704700BFB8110020C0110020CF
:103DD00080B485B000AFF860B9607A60FB68043BDE
:103DE000FB60FB684FF080721A60FB68043BFB606D
:103DF000BB6823F00102FB681A60FB68043BFB60B0
:103E00000C4AFB681A60FB68143BFB607A68FB682D
:103E10001A60FB68043BFB60FB686FF002021A60EB
:103E2000FB68203BFB60FB6818461437BD465DF815
:103E3000047B7047393E000880B485B000AF002392
:103E40007B60124B1B68B3F1FF3F0AD04FF0500369
:103E500083F31188BFF36F8FBFF34F8FFB6000BFF9
:103E6000FEE74FF0500383F31188BFF36F8FBFF36A
:103E70004F8FBB6000BF00BF7B68002BFCD000BF32
:103E800000BF1437BD465DF8047B70470C0000206E
:103E9000074B19680868B0E8F04F80F30988BFF352
:103EA0006F8F4FF0000080F311887047AFF30080F0
:103EB0000401002000BF00BF80B483B000AF4FF00A
:103EC000500383F31188BFF36F8FBFF34F8F7B6075
:103ED00000BF0F4B1B6801330D4A13600C4B1B686E
:103EE000012B0FD10B4B1B68DBB2002B0AD04FF01C
:103EF000500383F31188BFF36F8FBFF34F8F3B6085
:103F000000BFFEE700BF0C37BD465DF8047B70477D
:103F10000C00002004ED00E080B483B000AF124B31
:103F20001B68002B0AD14FF0500383F31188BFF3B5
:103F30006F8FBFF34F8F7B6000BFFEE70A4B1B689C
:103F4000013B094A1360084B1B68002B05D1002375
:103F50003B603B6883F3118800BF00BF0C37BD4650
:103F60005DF8047B704700BF0C00002000000000DB
:103F7000EFF30980BFF36F8F154B1A681EF0100F17
:103F800008BF20ED108A20E9F04F10602DE90900EC
:103F90004FF0500080F31188BFF34F8FBFF36F8F46
:103FA000FFF71AFB4FF0000080F3118809BC196875
:103FB0000868B0E8F04F1EF0100F08BFB0EC108A90
:103FC00080F30988BFF36F8F704700BFAFF30080A5
:103FD0000401002000BF00BF80B582B000AF4FF0E9
:103FE000500383F31188BFF36F8FBFF34F8F7B6054
:103FF00000BFFFF737FA0346002B03D0064B4FF004
:1040000080521A6000233B603B6883F3118800BF35
:1040100000BF0837BD4680BD04ED00E080B483B02A
:1040200000AF214B7B607B6803221A617B6803220F
:104030005A617B681D4A9A617B681D4ADA617B6818
:104040004FF480621A627B6800229A627B680022C9
:104050005A627B680022DA627B68144A1A667B68BF
:10406000144A5A667B6840229A667B6800221A6767
:104070007B680022DA667B6800225A677B68073318
:104080000D4A106818607B680C4A106818609188A7
:10409000927999809A717B6820229A7100BF0C37BF
:1040A000BD465DF8047B7047D8110020F44D000830
:1040B0008012002080160020004E0008044E0008E8
:1040C00080B588B000AFF860B9607A600023BB614A
:1040D000FB68DB687B61FB681B693B613A697B6954
:1040E0009A4205D93A697B69D31A013BFB6107E023
:1040F000FB689A6839697B69CB1A1344013BFB6101
:10410000FB689A687B69D31AFA69934228BF134601
:10411000FB61FA697B68934228BF1346FB61FB6829
:104120005A687B691344FA69B968184600F0C6FCFE
:10413000BA69FB691344BB61BA68FB691344BB608D
:104140007A68FB69D31A7B607A69FB6913447B61E7
:10415000FB689B687A699A4201D100237B61FB6806
:104160007A69DA607B68002BB5D1BB6918462037C5
:10417000BD4680BD80B588B000AFF860B9607A6098
:10418000FB68DB68FB61FB689A68FB69D31ABB615B
:10419000BA697B689A420ED9FB685A68FB69134476
:1041A0007A68B968184600F089FCFA697B681A4495
:1041B000FB68DA601AE0BB697B61FB685A68FB69DF
:1041C00013447A69B968184600F078FC7A68BB69CC
:1041D000D31A7B61FB685868BA68BB6913447A6973
:1041E000194600F06BFCFB687A69DA6000BF203783
:1041F000BD4680BD80B487B000AF78607B681B6926
:104200003B617B68DB68FB603A69FB689A4208D8CF
:104210007B689A68FB68D21A3B691344013B7B6157
:1042200004E03A69FB68D31A013B7B617B6918465D
:104230001C37BD465DF8047B7047000080B588B030
:1042400000AFF860B9607A60BB68BB61FB685A1C5C
:1042500013465B001344DB001F4A13447B617B69F8
:104260005B69022B29D0022B2ED8002B02D0012B08
:1042700013D029E07869FFF7BDFF38613A697B68A0
:104280009A4202D20023FB6121E07B68FB617A68DD
:10429000B9697869FFF76EFF19E07869FFF7AAFF3F
:1042A00038617A683B69934228BF1346FB61FA691B
:1042B000B9697869FFF75EFF09E07A68B9697869DA
:1042C000FFF7FEFEF86102E00023FB6100BFFB691F
:1042D00018462037BD4680BDD811002080B586B075
:1042E00000AFF860B9607A600D4B1B78002B01D1EC
:1042F000FFF794FEEFF311834FF0200181F3118853
:104300007B617A68B968F868FFF798FF38617B6964
:1043100083F311883B6918461837BD4680BD00BF3E
:10432000D811002080B584B000AF78600B46FB70D8
:104330007B689B68FB60FB685A1C7B685B689A42E1
:104340000ED87B681A68FB681344FA781A70FB6809
:104350005A1C7B689A607B68DB685A1C7B68DA6051
:104360007B689A687B685B689A4215D17B6818699C
:104370007B6819687B689B681A46FFF7AFFF0246A7
:104380007B689B689A4204D07B684FF0FF32DA600A
:1043900002E07B6800229A6000BF1037BD4680BDF6
:1043A00080B58AB000AFF860B9607A603B60BB68E6
:1043B0003B6201237B620123FB6107E03A6A7B6871
:1043C000B2FBF3F33B62FB690133FB613A6A7B6842
:1043D0009A42F3D23A68FB699A4201D93B68FB6181
:1043E0007B6B03F00103002B25D13B6B002B22D00C
:1043F0007B6B03F00203002B05D03B68002B02D13E
:104400003023FB7601E02023FB760BE03B6B013B86
:104410003B63FB7E1946F868FFF784FFFB68DB68A7
:10442000002B07DB3B6B002B05D0FA693B6B9A42F4
:10443000ECD300E000BFFB68DB68002B55DB3B687A
:10444000012B03D93B68013B3B6009E0BA687B6AFA
:10445000B2FBF3F37B617A697B689A4200D205E094
:104460007B6A7A6802FB03F37B62E8E7BA687B6ADF
:10447000B2FBF3F37B617B697A6A02FB03F3BA68F0
:10448000D31ABB601B4A7B6913441B781946F86832
:10449000FFF748FFFB68DB68002B08DB7A6A7B6864
:1044A000B2FBF3F37B627B6A002BDFD100E000BF3D
:1044B0007B6B03F00103002B17D03B6B002B14D058
:1044C0000AE03B6B013B3B632021F868FFF72AFFC2
:1044D000FB68DB68002B07DB3B6B002B05D0FA6920
:1044E0003B6B9A42EDD300E000BF00BF2837BD46CA
:1044F00080BD00BF784E000880B588B002AFF8607C
:10450000B9607A603B60BB68002BB8BF5B423B611F
:1045100001237B6107E07B683A6992FBF3F33B611F
:104520007B6901337B617B683A699A42F3DA3A68C6
:104530007B699A4201D93B687B613B6A002B0AD0B8
:10454000BB68002B04DB7B6A03F00403002B02D062
:104550003B6A013B3B627B6A03F00203002B02D003
:104560003B68002B1CD07B6A03F00103002B17D1A2
:104570003B6A002B14D00AE03B6A013B3B622021DE
:10458000F868FFF7CFFEFB68DB68002B07DB3B6AB0
:10459000002B05D07A693B6A9A42EDD300E000BF58
:1045A000FB68DB68002B4ADBBB68002B07DABB68C3
:1045B0005B42BB602D21F868FFF7B4FE08E07B6A20
:1045C00003F00403002B03D02B21F868FFF7AAFEA9
:1045D000FB68DB68002B32DB7B6A03F00203002BF5
:1045E0001FD07B6A03F00103002B1AD13B68002B1C
:1045F00017D13B6A002B14D00AE03B6A013B3B62B7
:104600003021F868FFF78EFEFB68DB68002B07DBC4
:104610003B6A002B05D07A693B6A9A42EDD300E0F1
:1046200000BFFB68DB68002B09DBB9687B6A01937C
:104630003B6A00933B687A68F868FFF7B1FE00BFF9
:104640001837BD4680BD000080B5A2B002AFF8604B
:10465000B9607A6007F110033B6540237B65002356
:10466000BB65FB683B660023FB65BB681B7887F86E
:104670007F30BB680133BB6097F87F30002B00F0C0
:104680009F8197F87F30252B40F08D8100233B6779
:104690000123BB67BB681B7887F87F3097F87F30B2
:1046A000233B0D2B3ED801A252F823F015470008FA
:1046B000254700082547000825470008254700082A
:1046C000254700082547000825470008054700083A
:1046D00025470008E546000825470008254700084B
:1046E000F54600083B6F43F001033B67BB680133AD
:1046F000BB601AE03B6F43F002033B67BB680133CA
:10470000BB6012E03B6F43F004033B67BB680133BF
:10471000BB600AE03B6F43F008033B67BB680133B3
:10472000BB6002E00023BB6700BFBB6F002BB1D1B1
:104730000023FB66BB681B7887F87F3097F87F30D3
:104740002F2B12D997F87F30392B0ED8BB68013345
:10475000BB60FA6E13469B0013445B001A4697F841
:104760007F301344303BFB66E4E700237B67BB6884
:104770001B7887F87F3097F87F302E2B1DD1BB68D0
:104780000133BB60BB681B7887F87F3097F87F30B8
:104790002F2B12D997F87F30392B0ED8BB680133F5
:1047A000BB607A6F13469B0013445B001A4697F870
:1047B0007F301344303B7B67E4E7BB681B7887F8A6
:1047C0007F3097F87F306C2B03D097F87F30682BC1
:1047D00007D1BB680133BB60BB681B7887F87F30AB
:1047E000EFE797F87F30252B00F0D180252BC0F222
:1047F000D580782B00F3D280582BC0F2CF80583B65
:10480000202B00F2CB8001A252F823F003490008CC
:104810009D4900089D4900089D4900089D490008E0
:104820009D4900089D4900089D4900089D490008D0
:104830009D4900089D49000891480008B7480008B4
:104840009D4900089D4900089D4900089D490008B0
:104850009D4900089D4900089D4900089D490008A0
:104860009D4900089D4900089D49000869490008C4
:104870009D4900089D490008294900089D490008F4
:10488000DD4800089D4900089D49000803490008CB
:104890007B681B68191D7A6811601B68BB67BB6F5A
:1048A00087F8673097F8672007F1500311461846DC
:1048B000FFF738FD73E07B681B68191D7A6811608B
:1048C0001B68BB6707F150003B6F0193FB6E0093C1
:1048D0007B6F0A22B96FFFF70FFE60E07B681B68F1
:1048E000191D7A6811601B68BB67B96F07F150002A
:1048F0003B6F0193FB6E00937B6F0A22FFF750FD25
:104900004DE07B681B68191D7A6811601B68BB67E6
:10491000B96F07F150003B6F0193FB6E00937B6F03
:104920001022FFF73DFD3AE07B681B68191D7A688D
:1049300011601B68BB66BB6E1B7887F87F30BB6E4F
:104940000133BB6697F87F30002B0BD097F87F20A0
:1049500007F1500311461846FFF7E4FCFB6D002BEE
:10496000E9DA1CE000BF1AE07B681B68191D7A6851
:1049700011601B68BB67B96F07F1500000230193FA
:104980000823009308231022FFF70AFD07E007F130
:10499000500325211846FFF7C5FC00E000BFBB68A7
:1049A0000133BB6007E097F87F2007F15003114601
:1049B0001846FFF7B7FCFB6D002BBFF656AE00E0C4
:1049C00000BFFB6D002B0DDDBB6D002B06D0BA6D5B
:1049D00007F110031946F868FFF780FCFB6DBA6D0C
:1049E0001344FB65FB6D18468037BD4680BD00BF94
:1049F0000EB480B585B000AF786007F12003BB60CE
:104A000007F108031A46F9697868FFF71DFEF86098
:104A1000FB6818461437BD46BDE8804003B07047B8
:104A2000DFF834D0FEF7D6F90C480D490D4A0023C3
:104A300002E0D458C4500433C4188C42F9D30A4A53
:104A40000A4C002301E013600432A242FBD300F0C1
:104A500011F8FBF7FDFBFEE700000120000000203D
:104A600010000020A04E000810000020C0160020FA
:104A7000FEE7000070B50D4D0D4C641BA410002620
:104A8000A64209D10B4D0C4C00F092F9641BA41006
:104A90000026A64205D170BD55F8043B9847013663
:104AA000EEE755F8043B98470136F2E7904E0008D0
:104AB000904E0008904E0008944E00080A4491421F
:104AC00000F1FF3300D1704710B511F8014B03F826
:104AD000014F9142F9D110BD02440346934200D1E7
:104AE000704703F8011BF9E72DE9F047089E0D46D2
:104AF00004460F46002B4AD18A42944665D9B2FA41
:104B000082F343B102FA03FCC3F120029F4020FA72
:104B100002F217439C404FEA1C4E1FFA8CF5B7FB7C
:104B2000FEF1220C0EFB117742EA074201FB05F071
:104B300090420AD91CEB020201F1FF3780F01C8180
:104B4000904240F2198102396244121AA4B2B2FBB7
:104B5000FEF00EFB102244EA024400FB05F5A542DC
:104B60000AD91CEB040400F1FF3280F00781A54252
:104B700040F204816444023840EA0140641B002191
:104B80001EB1DC400023C6E90043BDE8F0878B423C
:104B900008D9002E00F0ED800021C6E90005084686
:104BA000BDE8F087B3FA83F1002949D1AB4202D3C3
:104BB000824200F2F880841A65EB03020120174656
:104BC000002EE2D0C6E90047DFE702B9FFDEB2FA05
:104BD00082F3002B40F090808A1A4FEA1C471FFA9C
:104BE0008CFE0121B2FBF7F507FB1520220C42EAEF
:104BF00000420EFB05F0904208D91CEB020205F1C1
:104C0000FF3802D2904200F2CB804546121AA4B27D
:104C1000B2FBF7F007FB102244EA02440EFB00FE51
:104C2000A64508D91CEB040400F1FF3202D2A645C8
:104C300000F2BB801046A4EB0E0440EA05409FE75B
:104C4000C1F120078B4022FA07FC4CEA030C05FA5D
:104C500001F420FA07F3FD404FEA1C492343B5FB5A
:104C6000F9F81FFA8CFE09FB18551C0C44EA0544A0
:104C700008FB0EF5A54202FA01F200FA01F00BD989
:104C80001CEB040408F1FF3A80F08880A54240F252
:104C90008580A8F102086444641B9DB2B4FBF9F35B
:104CA00009FB134445EA044403FB0EFEA64508D95C
:104CB0001CEB040403F1FF356CD2A6456AD9023B14
:104CC000644443EA0843A3FB0295A4EB0E04AC4200
:104CD000C846AE4656D353D056B1B0EB080264EB8B
:104CE0000E0404FA07F7CA40CC401743C6E9007423
:104CF00018460021BDE8F087C3F1200102FA03FC49
:104D000020FA01F225FA01F19D402A434FEA1C479F
:104D10001FFA8CFEB1FBF7F007FB1015110C41EAEE
:104D2000054100FB0EF58D4204FA03F408D91CEB93
:104D3000010100F1FF382FD28D422DD90238614494
:104D4000491B92B2B1FBF7F507FB151142EA01428C
:104D500005FB0EF1914208D91CEB020205F1FF3868
:104D600016D2914214D9023D6244521A45EA0041DA
:104D700038E73146304608E73946E6E61046FBE6B6
:104D80004845A9D2B9EB020865EB0C0E013BA3E73D
:104D90004546EAE72B4694E74046D1E7D0467BE715
:104DA000023D624432E708460AE76444023842E7BB
:104DB000F8B500BFF8BC08BC9E467047F8B500BF08
:084DC000F8BC08BC9E467047D8
:104DC80064656661756C745461736B00493A20744C
:104DD8006573742D6461746100000000493A2064B1
:104DE8007572756D202564200A0D00005465726D7A
:104DF800696E616C000000005254540053454747E7
:104E080045520000C84D00080000000000000000E6
:104E18000000000000000000000200001800000070
:104E2800000000000000000000000000000000007A
:104E38000102030406070809000000000102030438
:104E4800A0860100400D0300801A060000350C0002
:104E580040420F0080841E0000093D0000127A00C5
:104E68000024F40000366E010048E801006CDC0202
:104E78003031323334353637383941424344454688
:084E880060FCFF7F0100000047
:084E90002D02000800000000E3
:084E9800050200080000000003
:104EA000100000000100000000093D00AAAAAAAA03
:0400000508004A2184
:00000001FF
